:100000000C94AE030C94D6030C94D6030C94D60334
:100010000C94D6030C94D6030C94A51E0C94D60312
:100020000C94D6030C94D6030C94D6030C94D603EC
:100030000C94D6030C94D6030C9423200C94D42057
:100040000C94D6030C94D6030C94D6030C94D603CC
:100050000C94361E0C94D6030C94D6030C94D60341
:100060000C945B1E0C94391F0C94D6030C94D6038D
:100070000C94D6030C94EC1D0C94D6030C94D6036C
:100080000C94D6030C94D6030C94801E0C94111E71
:100090000C94881D0C94F01E0C94CA1E0C94D6036C
:1000A00005A84CCDB2D44EB93836A9020C50B9913E
:1000B0008688083CA6AAAA2ABE000000803F5B42B0
:1000C00048313735305D204552524F523A20756ED7
:1000D000646566696E6564206572726F72005B426A
:1000E00048313735305D204552524F523A206F74B7
:1000F000686572206572726F72005B4248313735F5
:10010000305D204552524F523A20726563656976E0
:100110006564204E41434B206F6E207472616E7394
:100120006D6974206F662064617461005B424831C0
:100130003735305D204552524F523A207265636523
:1001400069766564204E41434B206F6E2074726166
:100150006E736D6974206F66206164647265737379
:10016000005B4248313735305D204552524F523A9C
:1001700020746F6F206C6F6E6720666F72207472D0
:10018000616E736D697420627566666572005B42AC
:1001900048313735305D204552524F523A20756E06
:1001A000646566696E6564206572726F72005B4299
:1001B00048313735305D204552524F523A206F74E6
:1001C000686572206572726F72005B424831373524
:1001D000305D204552524F523A2072656365697610
:1001E0006564204E41434B206F6E207472616E73C4
:1001F0006D6974206F662064617461005B424831F0
:100200003735305D204552524F523A207265636552
:1002100069766564204E41434B206F6E2074726195
:100220006E736D6974206F662061646472657373A8
:10023000005B4248313735305D204552524F523ACB
:1002400020746F6F206C6F6E6720666F72207472FF
:10025000616E736D69742062756666657200416CCB
:100260006C2073656E736F727320696E6974696157
:100270006C697A6564207375636365737366756C06
:100280006C790042483137353020696E6974696194
:100290006C697A6174696F6E206661696C6564006F
:1002A0004446526F626F7420424D503238302049BC
:1002B000494320696E697469616C697A6174696F18
:1002C0006E206661696C6564004148543231206972
:1002D0006E697469616C697A6174696F6E206661B8
:1002E000696C65640031313A32343A3332004A7510
:1002F0006C203231203230323500525443206C6F42
:10030000737420706F7765722C2073657474696ED6
:10031000672074696D650052544320696E69746981
:10032000616C697A6174696F6E206661696C65647D
:1003300000446973706C6179206D616E61676572EC
:1003400020696E697469616C697A656400557365CA
:100350007220696E70757420696E697469616C6968
:100360007A6564004D6F746F7220636F6E74726F84
:100370006C20696E697469616C697A6564004175A5
:1003800064696F206D616E6167657220696E697462
:1003900069616C697A65640044617461206C6F679F
:1003A00067657220696E697469616C697A65640059
:1003B0004C69676874696E67206566666563747307
:1003C00020696E697469616C697A6564004D696E53
:1003D0007574652068616E642063616C6962726126
:1003E0007465640043616C6962726174696E672050
:1003F0006D696E7574652068616E642E2E2E0050D6
:10040000656E64756C756D2063616C696272617490
:1004100065640043616C6962726174696E67207023
:10042000656E64756C756D2E2E2E00464154414CE0
:100430003A2053797374656D20696E697469616CD3
:10044000697A6174696F6E206661696C65640057D2
:1004500065617468657220436C6F636B20526561DF
:10046000647900416C6C206D6F64756C65732069F4
:100470006E697469616C697A65642073756363651C
:10048000737366756C6C79004552524F523A205323
:10049000656E736F727320696E697469616C697AD5
:1004A0006174696F6E206661696C6564005765618F
:1004B0007468657220436C6F636B2053746172744F
:1004C000696E672E2E2E0053657474696E67206EF8
:1004D0006F7420696D706C656D656E746564004144
:1004E000646A757374696E67206368696D652066F8
:1004F00072657175656E63790041646A75737469BC
:100500006E67206368696D6520696E737472756DBE
:10051000656E740041646A757374696E6720636800
:10052000696D6520747970650041646A75737469DA
:100530006E6720646174652073657474696E67000A
:1005400041646A757374696E672074696D652073A0
:10055000657474696E6700446973706C6179206DAD
:100560006F6465206368616E67656420746F3A200C
:100570000045786974696E672073657474696E6785
:1005800073206D6F646500456E746572696E6720D7
:1005900073657474696E6773206D6F6465005B4288
:1005A00048313735305D204465766963652069736D
:1005B000206E6F7420636F6E666967757265642163
:1005C000000000000000000000000000000000002B
:1005D000000000000000000000000000000000001B
:1005E000000000000000000000000000000000000B
:1005F00000000000000000000000000000000000FB
:1006000000000000000000000000000000000000EA
:1006100000000000000000000000000000000000DA
:1006200000000000000000000000000000000000CA
:100630000000000000004661696C656420746F2052
:1006400072656164204148543231005741524E492D
:100650004E473A2053656E736F7220726561642055
:100660006661696C656400000006400202CE12ED0E
:1006700012E43F5923000200240009C03FC01200C9
:1006800008C0000040000C3F0C0604DB008F00E6B1
:10069000006920FD000700FF00EF000012000A4083
:1006A00024C80080098350BB02F7008F1239000F65
:1006B0001279007100BD00F60009121E0070243886
:1006C00000360536213F00F3003F20F320ED000106
:1006D000123E00300C3628002DEE00090C390000C7
:1006E000210F0000280800000158107820D8008E43
:1006F000085808C0148E0470100010100A0036301C
:1007000000D4105010DC007001860450008820785E
:10071000001C0010081428002D8E0248084909000A
:10072000128924C00C00004461696C7920646174F2
:1007300061206C6F6767656400486F75726C792023
:1007400064617461206C6F67676564001F1C1F1E05
:100750001F1E1F1F1E1F1E00C321353611241FBE62
:10076000CFEFCDBFDFE3DEBF21E3AEE0B8E201C0F3
:100770001D92AF3CB207E1F718E2A0E0B8E2E8EB67
:10078000F1E802C005900D92AE30B107D9F713E041
:10079000CDEAD3E004C02197FE010E947938CC3A1B
:1007A000D107C9F70E945A230C94AD3F0C94000066
:1007B000DC0115961C92159714961C9214971396AB
:1007C0001C9213971C9281E011968C9311971196AD
:1007D0008C9111978C3070F4282F2150330BF90134
:1007E000E45BF84FE491823009F4EF5FE11102C05D
:1007F0008F5FEACF81E012968C9308958F929F923B
:10080000AF92BF92CF92DF92EF92FF92CF9320915F
:10081000222B3091232B82179307E8F54B01AA2452
:10082000BB24C82DC52ED62EE72EFF24BC2DA42F09
:100830002091282B222361F0829E40011124C92D92
:100840002C9D60011124BD2D249FF0011124AF2F98
:10085000E0912E2BE090292BF0902A2B30912B2B1E
:10086000E31323C09C01220F331F820F931F8E0DB1
:100870009F1DE0912B2BE80FF92FF11DC083E09114
:100880002C2BE80FF92FF11DB08320912D2B820F17
:10089000911DFC01A083CF91FF90EF90DF90CF904E
:1008A000BF90AF909F908F900895880F991F880FE9
:1008B000991F8E0D9F1D472F5527662777272223C7
:1008C00049F030E0249F7001259FF00C349FF00C1C
:1008D00011244F2DE80FF92FF11D4083CACF0F933C
:1008E0001F9390913C2B969F90011124979FA001FC
:1008F0001124452F50E070E060E0762F652F542FD3
:100900004427632B989FC00111248A019B01092B66
:10091000C901B8011F910F910895CF92DF92EF9214
:10092000FF921F93CF93DF939C01203282E0380720
:10093000D4F5D901253B310514F0A4EBB0E040918A
:100940002F3128E830E0241B310947FD3395220F71
:10095000331F220F331F6901330FEE08FF08409148
:10096000303128E532E0241B310947FD3395220F51
:10097000331F220F331F032E000C440B550B2C1971
:100980003D094E095F09B7FF02C0B0E0A0E00E9438
:100990007F3824EB30E040E050E00E945A382C0DC4
:1009A0003D1D4E1D5F1D10912E311C3008F04AC0B8
:1009B00080912F31C8E8D0E0C81BD10987FDD395BD
:1009C000CC0FDD1FCC0FDD1F2C173D0784F080916D
:1009D0003031C8E5D2E0C81BD10987FDD395CC0FD3
:1009E000DD1FCC0FDD1F2C173D070CF4E9016091D2
:1009F000042870910528809106289091072820E40A
:100A000032E44FE050E00E94383884E03695279574
:100A10008A95E1F725972C9FC0012D9F900D3C9F53
:100A2000900D11249C013695279536952795812F99
:100A300090E0FC01EE0FFF1FE80FF91FED53F54D9D
:100A400021833283DF91CF911F91FF90EF90DF9050
:100A5000CF9008956F927F928F929F92AF92BF92A4
:100A6000CF92DF92EF92FF920F931F93CF93DF937A
:100A70007C013B016A0110E000E0D70114968D91E2
:100A80009C91E601C01BD10B8C179D0708F4EC016B
:100A9000F7018181928121E0A6014C1B5D0B0417B7
:100AA000150708F420E0DC01ED91FC91048CF58D34
:100AB000E02DAE01D7016C9109958C179D0771F55A
:100AC0004301800E911E5401C501881999098C17A4
:100AD0009D0770F4F70181819281DC01ED91FC9119
:100AE0000284F385E02D0995F50181935F01ECCF38
:100AF0000C0F1D1F0C151D0508F4BFCF81E0DF9101
:100B0000CF911F910F91FF90EF90DF90CF90BF900A
:100B1000AF909F908F907F906F90089580E0EFCF7F
:100B2000CF93DF93EC0189819A81DC01ED91FC91F7
:100B30000684F785E02D099581E08B8389819A8170
:100B4000DC01ED91FC910688F789E02D688109951B
:100B500089819A81DC01ED91FC91028CF38DE02D6D
:100B6000099591E0811190E0892FDF91CF9108954F
:100B7000FC0154894589252F30E0842F90E0821BA9
:100B8000930B541710F0CF96089501970895FC0128
:100B900092898389981761F0A389AE0FBF2FB11D89
:100BA00059968C9193899F5F9F73938B90E00895E2
:100BB0008FEF9FEF0895FC0192898389981731F098
:100BC0008389E80FF11D818D90E008958FEF9FEFED
:100BD0000895FC0192892389892F90E0805C9F4FC2
:100BE000821B91098F7399270895CF93DF93EC01AE
:100BF000E881F9810680F781E02D0995EC85FD8576
:100C000086818F738683EC85FD8585818F758583CD
:100C10008B898A8B198ADF91CF910895CF93DF93C7
:100C2000FC0194898589C485D585981306C08D817A
:100C30008F7D8D83DF91CF910895A589AE0FBF2F52
:100C4000B11DA75ABF4F2C91858990E001968F73F3
:100C50009927858B80E48C83A485B58512962C9387
:100C6000948985899813E6CFA485B58515968C91CE
:100C700015978F7D15968C9387898823D9F2808D5F
:100C800080931301178AD6CFDC011C96ED91FC915D
:100C90000FB607FE03C0258125FD04C0248125FD74
:100CA0000C940E060895EF92FF920F931F93CF932B
:100CB000DF93EC0181E0898B9C898D8998131CC09E
:100CC000AC85BD8514968C91149785FF15C012963E
:100CD0006C93AC85BD8580E414968C93EC85FD8582
:100CE00085818F7D858381E090E0DF91CF911F9199
:100CF0000F91FF90EF9008958091110180FF08C03F
:100D000080911301888F8E898093130181E08F8BEE
:100D1000F62E0C8910E00F5F1F4F0F731127E02E86
:100D20008D898E1104C0CE010E944406F9CFEC8952
:100D3000EC0FFD2FF11DE75AFF4FF0820C8BEC8575
:100D4000FD8585818062CECF0F931F93CF93DF9374
:100D50008C01D0E0C0E0F801EC0FFD1F6491662328
:100D600041F088E29AE20E945306892B11F0219605
:100D7000F2CFCE01DF91CF911F910F910895CF93C4
:100D8000DF93FC0121892223C9F0EC01809111013C
:100D900080FF08C080911301808F868980931301A2
:100DA00081E0878BEC85FD85858185FD03C084818D
:100DB00086FD04C0CE010E944406F4CFDF91CF919E
:100DC0000895CF93DF9390E0FC01E956FF43208123
:100DD0002F3F71F0FC01EF54FF43A08130E2A39F4D
:100DE000D0011124BC5F6130710529F411962C9358
:100DF000DF91CF9108958A549044EC01E881EF3F50
:100E000089F0CD014096E80FF92FF11D9FB7F894B6
:100E100012962C9380816230710539F4886080834A
:100E20009FBFE6CFF0E0E0E0F1CF877FF8CF8B32D5
:100E300010F40C94E1060895282F30E0F901E456EF
:100E4000F044E081EE2309F1E13021F0F0F0E630EA
:100E500098F008954091010A2A543044F901208104
:100E60002C5F81E090E001C0880F2A95EAF7809519
:100E700084238093010A089580E1E89FF001112402
:100E8000E05AF54F81818F7E81830895FF920F9301
:100E90001F93CF93DF93082F10E0F801E956FF432B
:100EA000F0809FEFF916A1F0EB018B3210F40E9455
:100EB0001C07F801EF54FF43E08180E2E89FF00156
:100EC0001124FC5F80818F2179F0209739F4F6821C
:100ED000DF91CF911F910F91FF900895229711F408
:100EE000F782F6CFF582F4CFD801AA54B0448C91A2
:100EF000309771F08F3F61F07096E80FF11D9FB74A
:100F0000F8948081CD2B39F4877F80839FBFE0CF19
:100F1000F0E0E0E0F4CF8860F8CF8B3210F40C946E
:100F200046070895CF92DF92EF92FF920F931F939F
:100F3000CF93DF93EC016A017B01022F898988231B
:100F400039F0E881F9810288F389E02DCE01099515
:100F500098898091E205892B8093E2051FB7F89468
:100F600060E070E281EA97E0A70196010E943838BC
:100F700069017A018FEFC81AD80AE80AF80AF694CC
:100F8000E794D794C794EC85FD8586818D7F868311
:100F9000EC85FD8586818683198AA09123110A2E0E
:100FA000000CBB0BA70196010E947F3820E034E0C3
:100FB00040E050E00E945A38EC85FD85C20ED31EF9
:100FC000E41EF51EC086D186EC85FD850783EC8581
:100FD000FD858681806C8683EC85FD8585818068B2
:100FE00085838E8562E070E00E9417078F8561E03F
:100FF00070E00E948D078F8561E070E00E94170706
:101000001FBFDF91CF911F910F91FF90EF90DF9065
:10101000CF900895CF93DF938FB7F89420914D2907
:1010200030914E2940914F2950915029E091BA0AB0
:101030009091B60A90FF06C02F5F3F4F4F4F5F4F12
:10104000E091BA0A8FBFA0914B29B0914C29C09171
:101050004929D0914A290E94A937EC9F9001ED9F20
:10106000300D1124620F731F811D911DDF91CF91EF
:1010700008950F931F93CF93DF93CDB7DEB72997D2
:10108000CDBFDEBF8091292B90912A2B892B09F4AB
:101090007CC00E940A0800912F2B1091302B2091C8
:1010A000312B3091322B601771078207930740F480
:1010B00060932F2B7093302B8093312B9093322B96
:1010C00000912F2B1091302B2091312B3091322B0E
:1010D000601B710B820B930B6C3271408105910583
:1010E000C0F2F8948091242B9091252B89839A83C8
:1010F000E091292BF0912A2BDF01119680818987BD
:101100009091202BE091332BF091342B8091352B53
:10111000992309F442C09081982B988790818095FB
:1011200089238F838F818C8388E08B8358856F819F
:1011300049853B812C8189819A81508347FD252FE8
:101140003A952083262F39F0441F00C000006083A9
:10115000000000C0F2CF38E04D916083000001979D
:1011600061F7E093332BF093342B49873B832C8337
:1011700089839A8378940E940A0860932F2B709336
:10118000302B8093312B9093322B2996CDBFDEBF2D
:10119000DF91CF911F910F9108959081982B98879F
:1011A0009081809589238F838F818E8388E08D83C2
:1011B00058856F8149853D812E8189819A8150832F
:1011C00047FD252F00C000C0208300C000C000C024
:1011D00000C000C060830000262F3A9541F0441FF4
:1011E000000000C000C000C000C000C0E8CF38E070
:1011F0004D9100C0608300C0019709F7E093332B45
:10120000F093342B49873D832E83B2CF8F929F92E8
:10121000AF92BF92CF92DF92EF92FF924B015C01AF
:101220000E940A086B017C01A8EEB3E0A5019401BD
:101230000E94A937C60ED71EE81EF91EC616D7068D
:10124000E806F90618F40E940A08F8CF0E940A0876
:101250006C157D058E059F05C8F3FF90EF90DF901C
:10126000CF90BF90AF909F908F9008950F931F9352
:10127000CF93DF9320913E3130913F31882389F124
:10128000C901019668E070E00E94243880933E31E5
:1012900090933F3100E211E3D0E0C0E0E0913E31B5
:1012A000F0913F31EE0FFF1FEE0FFF1FEC0FFD1F00
:1012B000EE0FFF1FE053F04460817181F8018191CE
:1012C0008F010E948D072196C430D10539F762E065
:1012D00070E080E090E0DF91CF911F910F910C942E
:1012E0000609C9010796CECF2FB7F894609145291A
:1012F0007091462980914729909148292FBF0895E0
:10130000AF92BF92CF92DF92EF92FF920F931F9313
:10131000CF93DF936C017B018B01040F151FEB0151
:101320005E01AE18BF08C017D10759F06991D60108
:10133000ED91FC910190F081E02DC6010995892B7A
:1013400079F7C501DF91CF911F910F91FF90EF9039
:10135000DF90CF90BF90AF900895EF92FF920F93E0
:101360001F93CF93DF93C82FD0E0A09695E0CC0FCA
:10137000DD1F9A95E1F7E984F82EFF0CFF0CFF0CB6
:1013800001E010E08E2D8023A9F02F2D210F30E0F9
:10139000220F331FF901EF54F64D80819181892B83
:1013A00049F00190F081E02D2F5A364DD9018D91F1
:1013B0009C9109951F5F000F183021F7E986DF9196
:1013C000CF911F910F91FF90EF90089581E00895C4
:1013D000DC01ED91FC910190F081E02D0994DF9208
:1013E000EF92FF920F931F93CF93DF93EC01D62ED2
:1013F0008A01790182E090E08A839B838AA19BA184
:10140000DC01ED91FC910684F785E02D09958AA118
:101410009BA1DC01ED91FC910688F789E02D6CA180
:1014200009958AA19BA1DC01ED91FC910190F081CD
:10143000E02D6D2D0995D12C2D2D30E08AA19BA199
:10144000DC01ED91FC912E153F0550F4200F311F6A
:101450000190F081E02DD9016C910995D394ECCFE6
:10146000028CF38DE02D0995811102C01A821B8236
:10147000DF91CF911F910F91FF90EF90DF90089532
:10148000AF92BF92CF92DF92EF92FF921F93CF93D2
:10149000DF93EC01162F5A01690182E090E08A8304
:1014A0009B838AA19BA1DC01ED91FC910684F785C9
:1014B000E02D09958AA19BA1DC01ED91FC910688A4
:1014C000F789E02D6CA109958AA19BA1DC01ED9122
:1014D000FC910190F081E02D612F09958AA19BA1DB
:1014E000DC01ED91FC91028CF38DE02D0995182F14
:1014F000811121C08AA19BA1DC01ED91FC91068C98
:10150000F78DE02DA6016CA10995E12EF12CEC14CC
:10151000FD0478F48AA19BA1DC01ED91FC91028489
:10152000F385E02D0995F501EE0DFF1D80831F5F0A
:10153000ECCF1A821B82DF91CF911F91FF90EF9029
:10154000DF90CF90BF90AF900895FF920F931F93BD
:10155000CF93DF931F92CDB7DEB7082F162FF42E4F
:1015600021E030E0AE014F5F5F4F682F80E791E3ED
:101570000E94400A412F4095198141234F294983F8
:1015800021E030E0AE014F5F5F4F602F80E791E3D5
:101590000E94EF090F90DF91CF911F910F91FF9063
:1015A00008950895CF93DF931F92CDB7DEB741E042
:1015B00050E0BE016F5F7F4FFC01848595850E94DE
:1015C0002A05882329F089810F90DF91CF91089512
:1015D0008FEFFACF0895FC01908190539A3008F074
:1015E00090E0818180532AE0929F800D112408951C
:1015F000FC01DB018C91808311968C911197818382
:1016000012968C911297828313968C9113978383F1
:1016100014968C911497848315968C9185830895E4
:101620000F9391E0909334291092332960933129DC
:10163000709332294093302920932F2910922E291C
:1016400010922D2900932C29880F80932B2923E0B9
:1016500030E044E050E080913029882341F020932D
:10166000292930932A2980912B298E7F0BC08091C4
:101670002F29882351F04093292950932A298091BA
:101680002B2981608093A70808C08091302981119F
:1016900004C080912F29882311F380913329882356
:1016A000E1F3809133298330B1F280912F2988238F
:1016B00021F080912D290F91089580913329823056
:1016C00031F0853031F0813031F480E0F4CF81E0C9
:1016D000F2CF83E0F0CF84E0EECFE0EAF8E091854E
:1016E0009066918722E030E02093292930932A29BF
:1016F00080931B2910921A29089581E080931A295A
:1017000010921B2993E09093AA089091AB0891FF47
:1017100010C010922729E0911829F09119290995F4
:101720008093262985E090E08093292990932A29A7
:101730000895109228298093252986E090E0F4CF1F
:101740008F929F92AF92BF92CF92DF92EF92FF92D1
:10175000CF93DF9360342DE0720723E08207910579
:1017600008F454C0611525E372072CE08207910547
:1017700008F445C060387F448241910508F046C0B6
:10178000C8E7D0E020E432E44FE050E08090042845
:1017900090900528A0900628B0900728C501B401B4
:1017A0000E94383869017A018AE0C81AD108E10834
:1017B000F108C501B40120E432E44FE050E00E949A
:1017C0003838DE010E94A93728EE33E040E050E0CF
:1017D0000E943838C21AD30AE40AF50AF694E7944C
:1017E000D794C794C092A608DF91CF91FF90EF9055
:1017F000DF90CF90BF90AF909F908F900895CCE2F4
:10180000D1E020E83AE146E050E0C0CFC8EED3E0B6
:1018100020EA36E841E050E0B9CF60931629709392
:101820001729089560931429709315290895E0915C
:101830001629F0911729309741F010921329109230
:101840001229099580911229089580E00895E09168
:101850001429F0911529309759F0309111292091D0
:101860001029321728F01092112980931029099419
:1018700008950895E091112980911029E81730F416
:10188000F0E0E057F74D808190E008958FEF9FEFF3
:10189000089590911129809110292FEF3FEF98170B
:1018A00048F4E92FF0E0E057F74D208130E09F5FEA
:1018B00090931129C90108958091102990911129BF
:1018C000891B990B0895CF92DF92EF92FF920F93AD
:1018D0001F93CF93DF937C018A01EB016B01C40E50
:1018E000D51ECC15DD0551F06991D701ED91FC9124
:1018F0000190F081E02DC7010995F3CFC801DF9178
:10190000CF911F910F91FF90EF90DF90CF900895AE
:101910002091122927FF08C021E030E0FC0122833A
:10192000338390E080E0089580911329E82FF0E060
:10193000E05FF74D60838F5F8093132980931229B6
:1019400081E090E00895DC01ED91FC91008CF18D37
:10195000E02D61E009940F938091292990912A2923
:101960000197A1F480913429811112C0062F20E043
:101970004091122960E178E280910F280E94100BBB
:1019800010921329109212290F91089580E0F8CF38
:1019900081E0F6CF60930F2810921329109212293C
:1019A00008951F93CF93DF93C62F142FD52F6695DD
:1019B0006695FC0180819181680F792F711D84E10A
:1019C0009BE20E94CA0CC3706C2F70E0660F771FF9
:1019D00084E19BE20E94E809612F84E19BE20E947E
:1019E000880C6D2F84E19BE20E94880C84E19BE2CD
:1019F000DF91CF911F910C94A30CBF92CF92DF92F5
:101A0000EF92FF920F931F93CF93DF93CDB7DEB783
:101A10002D97CDBFDEBF9DE0E3EDF0ECDE0111962A
:101A200001900D929A95E1F78330A8F4DB0194E0E0
:101A3000899FF001112481E090E08C0F9D1FE80F39
:101A4000F91F9B012C5F3F4F8D91882321F08193DB
:101A50002A173B07C9F7E090112AF090122AB12CFF
:101A60008E010F5F1F4F87E6C82E86E0D82ED70164
:101A700014968D919C91B81619060CF03AC0D801B5
:101A8000EC91E1110BC0F60145915591659174916E
:101A90006B2DC7010E94D10CB394E9CF11968C91A4
:101AA0008E32B1F44FEF5FEFE0324CF0EE0FFF0BF0
:101AB000E95DF94F459155916591749150646B2D95
:101AC000C7010E94D10C0F5F1F4F0F5F1F4FE4CF64
:101AD0004FEF5FEFE03244F0EE0FFF0BE95DF94F9F
:101AE00045915591659174916B2DC7010E94D10C60
:101AF000ECCF2D96CDBFDEBFDF91CF911F910F911F
:101B0000FF90EF90DF90CF90BF9008950F931F93B9
:101B1000CF938C01C0E0F80184819581C817190624
:101B200044F450E040E06C2FC8010E94D10CCF5F1C
:101B3000F2CFCF911F910F910895DF92EF92FF9214
:101B40000F931F93CF93DF938C017B01D12CCD2D6D
:101B5000D0E0F80182819381C817D9070CF044C006
:101B6000608171816C0F7D1F84E19BE20E94CA0C31
:101B700061E270E084E19BE20E94E80960E084E1B8
:101B80009BE20E94AB0CF801608171816C0F7D1F9C
:101B900084E19BE20E94CA0CF701EC0FFD1F6081FB
:101BA00070E060527F4F84E19BE20E94E80960E0B0
:101BB00084E19BE20E94AB0CF801608171816C0FA3
:101BC0007D1F84E19BE20E94CA0C61E870E084E121
:101BD0009BE20E94E80984E19BE20E94A30CC801F9
:101BE0000E94860DD394B3CFDF91CF911F910F91B7
:101BF000FF90EF90DF900895DC01ED91FC91048C53
:101C0000F58DE02D21E009940F9380E998E280930F
:101C10001C2990931D298091292990912A290197A7
:101C2000C9F480913429811117C0FA014138510556
:101C300010F0E0E8F0E0022F862F2E2F40E070E059
:101C400060E00E94100B109211298093102990E0FF
:101C50000F91089580E0F7CF81E0F5CFCB01BA0175
:101C60000C94A00BE0EAF8E01382168281E08583F1
:101C7000148611861092292910922A29089510920B
:101C80001129109210291092132910921229809173
:101C9000292990912A29892BD9F482E090E0809318
:101CA000292990932A2910922829109227291092E5
:101CB0001A2910921B2910920E2810922529660FBE
:101CC0006093AC0881EE8093A90881E08093A3081B
:101CD00087E19CE0809318299093192980E198E28C
:101CE00080931E2990931F2987E29CE080932329EB
:101CF0009093242980E998E28093202990932129C8
:101D000080E88093222908951092112910921029B9
:101D100010921329109212298091292990912A2931
:101D2000892B41F562E070E086E10E94E10662E005
:101D300070E087E10E94E1068091E3058093E3056E
:101D400081E090E08093292990932A2910922D29EF
:101D500010922E29109234291092332981EC80930D
:101D6000A30860EA76E881E090E00E94A00B81E0A1
:101D70008093A508089590E080E00895DC01ED913E
:101D8000FC910088F189E02D23E030E00994DC012A
:101D9000ED91FD918081ED91FD919081ED91FD910D
:101DA0006C9163708E2309F064609F2309F0686072
:101DB000E4EEFEE0E60FF11D659565956D936D917E
:101DC0007D918D919D91099423C01AC012C016C0B7
:101DD00010C01EC009C014C013C006C019C009C07D
:101DE0000DC007C00DC014C06250704080409040CC
:101DF0000BC0615070408040904006C06E5F01C0D3
:101E00006F5F7F4F8F4F9F4F9E938E937E936E9306
:101E100008958091E82A9091E92A0C94C70E809148
:101E2000EA2A9091EB2A0C94C70E8091EC2A9091AB
:101E3000ED2A0C94C70E8091EE2A9091EF2A0C9413
:101E4000C70E8091F02A9091F12A0C94C70E8091D0
:101E5000F22A9091F32A0C94C70E8091F42A909163
:101E6000F52A0C94C70E8091F62A9091F72A0C94CB
:101E7000C70E8091F82A9091F92A0C94C70E809190
:101E8000FA2A9091FB2A0C94C70E8091FC2A90911B
:101E9000FD2A0C94C70E8091FE2A9091FF2A0C9483
:101EA000C70E8091002B9091012B0C94C70E80914E
:101EB000022B9091032B0C94C70E8091042B9091D0
:101EC000052B0C94C70E8091062B9091072B0C9438
:101ED000C70E8091082B9091092B0C94C70E80910E
:101EE0000A2B90910B2B0C94C70E80910C2B909188
:101EF0000D2B0C94C70E80910E2B90910F2B0C94F0
:101F0000C70E8091102B9091112B0C94C70E8091CD
:101F1000122B9091132B0C94C70E0F931F93CF93FA
:101F2000DF93EC018B010E94F80AF801868197810A
:101F3000A085B1858E839F83A887B9878285938585
:101F4000A485B5858A879B87AC87BD87868597855D
:101F5000A089B1898E879F87A88BB98B8289938945
:101F6000A489B5898A8B9B8BAC8BBD8B868997891D
:101F7000A08DB18D8E8B9F8BA88FB98F828D938D05
:101F8000A48DB58D8A8F9B8FAC8FBD8F85E07E969B
:101F9000DE015E9601900D928A95E1F7F80183A12A
:101FA0008BA3DF91CF911F910F9108950C94D803CB
:101FB0002AEFAC01249FC001259F900D1124BC0184
:101FC00090E080E00C9406091F93CF93DF938091FB
:101FD0001E2A90911F2A8130910539F090F10297C5
:101FE00069F1DF91CF911F910895C5E4D0EC809104
:101FF000232A8111F6CF81E08093232A0E9474095D
:102000006093242A7093252A8093262A9093272A66
:1020100014E08091232A811104C0898190E00E94FC
:10202000D80F64E670E080E090E00E94060911504D
:1020300022961111EECF1092232AD3CFCDE3D0EC0C
:10204000D6CFCDE4D0ECD3CFAF92BF92CF92DF9278
:10205000FF920F931F93CF93DF93FC01C481D0E0D5
:102060008091222A843008F45AC0CE016FE070E0DB
:102070000E942438892B51F0CE016EE170E00E945D
:102080002438892B19F0209709F04EC01381C12EF6
:10209000D12C8091022890910328C817D90739F4D0
:1020A0008091002890910128C816D906E9F120975F
:1020B00009F044C00E94E40F64EF71E080E090E01A
:1020C0000E940609812F6CE00E940438F92E9111BC
:1020D00002C08CE0F82E10E000E08F2D8150990BAB
:1020E0005C018091232A811104C082E090E00E946B
:1020F000D80F0A151B0534F464EF71E080E090E01E
:102100000E9406090F5F1F4F0F1558F3C093022856
:10211000D0930328C0920028D092012805C08230B5
:1021200008F0AACF8111AFCFDF91CF911F910F910E
:10213000FF90DF90CF90BF90AF9008950E94E40F82
:10214000E5CF4F925F926F927F928F929F92AF9264
:10215000BF92CF92DF92EF92FF920F931F93CF9394
:10216000DF93CDB7DEB7C854D109CDBFDEBF7C0148
:1021700080915D2F90E0479628E1C22ED12CB601C8
:102180000E94243832E2B32EB89E8001B99E100D11
:102190001124015C144DB801CE0183960E94F80A07
:1021A000F80186819781A085B18589A79AA7ABA7F9
:1021B000BCA782859385A485B5858DA79EA7AFA76B
:1021C000B8AB86859785A089B18989AB9AABABAB53
:1021D000BCAB82899389A489B5898DAB9EABAFAB2B
:1021E000B8AF86899789A08DB18D89AF9AAFABAF13
:1021F000BCAF828D938DA48DB58D21968CAF9DAF94
:10220000AEAFBFAF2197868D978DA0A1B1A12596C6
:102210008CAF9DAFAEAFBFAF259780915D2F90E0A3
:102220004496B6010E942438B89E8001B99E100DD4
:102230001124015C144DB801CE0101960E94F80AE8
:10224000D8011A968D919D910D90BC91A02D299643
:102250008CAF9DAFAEAFBFAF2997F80146845784CE
:1022600060887188268137814085518569A57AA566
:102270008BA59CA50E94D33920E030E040E450E4D7
:102280000E94403A4B015C01D7018D929D92AD9224
:10229000BC921397A301920169A97AA98BA99CA961
:1022A0000E94D33920E030E040E450E40E94403AFC
:1022B0002B013C01F7014482558266827782299680
:1022C0002CAD3DAD4EAD5FAD29976DA57EA58FA51B
:1022D00098A90E94D33920E030E040E450E40E9405
:1022E000403AD70118966D937D938D939C931B97DD
:1022F00011E020E030E040E85FE3C301B2010E945A
:10230000E83A18160CF010E0F701148720E030E0EE
:1023100040E85FEBC301B2010E946936881F88273D
:10232000881FD7011D968C93C501B4010E94B23A53
:102330009B0177FF04C022273327261B370BB901E7
:10234000330F880B990B0E94703611E020E030E0CB
:1023500040E050E40E94E83A18160CF010E0F70153
:102360001687C701C85BDF4FCDBFDEBFDF91CF91BE
:102370001F910F91FF90EF90DF90CF90BF90AF90A3
:102380009F908F907F906F905F904F900895DF9215
:10239000EF92FF920F931F93CF93DF93DC0114967C
:1023A000ED91FC91E417F50710F490E029C0D22ECE
:1023B0008A017B01EC0189819A81DC01ED91FC911C
:1023C0000688F789E02D6881099589819A81DC0169
:1023D000ED91FC910280F381E02DA801B7010995F0
:1023E0000817190711F789819A81DC01ED91FC9199
:1023F000008CF18DE02D6D2D099591E08111D5CFE7
:10240000892FDF91CF911F910F91FF90EF90DF9077
:1024100008950F931F93CF93DF9300D0CDB7DEB70E
:102420008FE08A830CE511E321E041E050E0BE013A
:102430006E5F7F4FF801808191810E94C71141E05A
:1024400050E0BE016F5F7F4FF801808191810E9453
:102450002A0589810F900F90DF91CF911F910F91E5
:1024600008958F929F92AF92BF920F931F93CF9335
:10247000DF93CDB7DEB7A197CDBFDEBF19A2423043
:1024800008F44AE08E010F5D1F4F842E912CB12C71
:10249000A12CA50194010E943838E62FB901CA0188
:1024A000EA302CF5E05DD801EE938D01232B242B2F
:1024B000252B79F790E080E0109769F0FD010190FD
:1024C0000020E9F73197AF014A1B5B0BBD0188E2A1
:1024D0009AE20E948009A196CDBFDEBFDF91CF9125
:1024E0001F910F91BF90AF909F908F900895E95CDE
:1024F000DACF42E050E060EE70EC88E29AE20C94B1
:102500008009CF93DF930E94A406EC010E94791208
:102510008C0F9D1FDF91CF9108952F923F924F9284
:102520005F926F927F928F929F92AF92BF92CF9263
:10253000DF92EF92FF920F931F93CF93DF93CDB76C
:10254000DEB7C854D109CDBFDEBF8C010E9474092B
:1025500027966CAF7DAF8EAF9FAF279780910F31DD
:1025600090E024E2289FD001299FB00D1124A15AA8
:10257000B04DF80101900D922A95E1F701966CE0BB
:1025800070E00E94243880930F31B801CE01839609
:102590000E94F80A9EA180911731981709F469C129
:1025A00080910F31882309F45BC1CE0101960E940E
:1025B000D60F86E0EFE5FFE2DE01119601900D9265
:1025C0008A95E1F780910F31282F30E029962EAFC0
:1025D0003FAF299709E61FE219A61AA61EAE1FAE45
:1025E00021961FAE219722961FAE22971AAE3CE38A
:1025F0003BAF4CE14CAF86E48DAF1EAA90EC9FAB95
:10260000A9E7A8AFB4ECB9AF1AAAE0ECEBABF9E7D5
:10261000FCAB24E42DAB1EA61FA618AA19AA812C78
:10262000912C54012401350169A529968EAD9FADE9
:102630002997A9A5BAA5A817B9070CF08CC01C97B3
:1026400009F49FC2F801E484F584F685FBA7D8015C
:102650001F96BC91BDA797014F2F5B2FC301B201FD
:102660000E94D4392B013C01F80120813181428143
:102670005381C501B4010E94D4394B015C01D801DA
:102680001496DC9014971596CC90159716963C905E
:10269000169717962C902D2D3C2D432D522D6EA55F
:1026A0007FA588A999A90E94D4396EA77FA788AB76
:1026B00099AB2AA93BA94CA95DA9B7018BA59DA5FA
:1026C0000E94693687FF06C0EAAAFBAABBA5BCAB7D
:1026D000EDA5EDAB2EA93FA948AD59ADB7018BA52E
:1026E0009DA50E94E83A181634F4EEAAFFAAFBA5AD
:1026F000F8AF2DA529AF2AAD3BAD4CAD5DAD6D2D2D
:102700007C2D832D922D0E94693687FF04C0DAAE9E
:10271000CBAE3CAE2DAE2EAD3FAD21964FAD219749
:1027200022965FAD22976D2D7C2D832D922D0E94D8
:10273000E83A181644F4DEAECFAE21963FAE2197AC
:1027400022962FAE229789A59AA5019689A79AA7C6
:102750000C5D1F4F69CF662309F480C070E090E0E4
:1027600080E00E9470366B017C01AC019B01C301CB
:10277000B2010E94403A6F83788789879A87A701C0
:102780009601C501B4010E94403A6B877C878D8712
:102790009E87A70196016EA57FA588A999A90E9489
:1027A000403A6F87788B898B9A8B8AA99BA9ACA9B1
:1027B000BDA98B8B9C8BAD8BBE8B8EA99FA9A8AD21
:1027C000B9AD8F8B988FA98FBA8F8AAD9BADACAD09
:1027D000BDAD8B8F9C8FAD8FBE8F8EAD9FAD219683
:1027E000AFAD21972296BFAD22978F8F98A3A9A353
:1027F000BAA380915D2F90E022E2289FD001299F0B
:10280000B00D1124A15CB44DFE01319601900D92E2
:102810002A95E1F7019668E170E00E942438182FAC
:1028200080935D2F90E080E00E948D37181729F08B
:10283000612F90E080E00E94953710915E2F81E03B
:1028400090E00E948D37181729F0612F81E090E009
:102850000E94953789E397E00E94811210920F3110
:1028600086E0FE01B396A4E1B1E301900D928A9552
:10287000E1F79DA180911C31981709F45DC1CE014B
:1028800001960E94D60F86E0EAE1F1E3DE0111969F
:1028900001900D928A95E1F780915D2FA7E1B0E05C
:1028A000A9A7BAA71CAE1DAE1EAE1FAE18AEBCE3E4
:1028B000B9AFECE1EAAFF6E4FBAF1CAA20EC2DAB1C
:1028C00039E73EAB44EC4FAB1DA690EC9EA7A9E7C1
:1028D000AAABB4E4BBABC12CD12C760146015701A5
:1028E00026013701E82FF0E02396EEAFFFAF2397E4
:1028F00023968EAD9FAD239729A53AA5820F931FEE
:1029000068E170E00E9424388BA79CA7E2E2DC011A
:10291000EA9FC001EB9F900D11249C01215C344D76
:102920001901D90116962D913D914D915C91199700
:10293000C301B2010E94D4392B013C01F10122856F
:10294000338544855585C501B4010E94D4394B01B6
:102950005C01D1011E962D913D914D915C91519755
:10296000C701B6010E94D4396B017C01F101F289E3
:102970002196FFAF2197D10153960C91539754960E
:102980001C91549755962C902DA53EA54AA95BA95C
:102990006F2F702F812F922D0E94693687FF07C0FD
:1029A0002196BFAD2197BDA70EA71AAB2BAA42E275
:1029B0002BA53CA5429FF001439FF00D1124E15C43
:1029C000F44D26883788008D118D2CA93DA94EA97C
:1029D0005FA9B101C8010E94E83A181624F42CAA94
:1029E0003DAA0EAB1FABA2E28BA59CA5A89FF00150
:1029F000A99FF00D1124E15CF44D228C338C048DE1
:102A0000158D28AD39AD4AAD5BADB101C8010E944D
:102A1000693687FF04C028AE39AE0AAF1BAF42E269
:102A20002BA53CA5429FF001439FF00D1124E15CD2
:102A3000F44D268C378C00A111A12CAD3DAD4EADCF
:102A40005FADB101C8010E94E83A181624F42CAE1B
:102A50003DAE0EAF1FAF89A59AA5019789A79AA78A
:102A6000019609F045CF20E030E040EC51E4C3018D
:102A7000B2010E94403A6F83788789879A8720E065
:102A800030E040EC51E4C501B4010E94403A6B874C
:102A90007C878D879E8720E030E040EC51E4C701C1
:102AA000B6010E94403A6F87788B898B9A8B8DA5EF
:102AB0009EA5AAA9BBA98B8B9C8BAD8BBE8B8CA929
:102AC0009DA9AEA9BFA98F8B988FA98FBA8F88AD0A
:102AD00099ADAAADBBAD8B8F9C8FAD8FBE8F8CADEA
:102AE0009DADAEADBFAD8F8F98A3A9A3BAA38091C2
:102AF0005E2F90E022E2289FD001299FB00D112483
:102B0000A159B14DFE01319601900D922A95E1F740
:102B1000019667E070E00E94243880935E2F87E280
:102B200097E00E94811286E0FE01B396AAE1B1E32C
:102B300001900D928A95E1F727968CAD9DADAEADD3
:102B4000BFAD27978093103190931131A09312312C
:102B5000B0931331C85BDF4FCDBFDEBFDF91CF91A4
:102B60001F910F91FF90EF90DF90CF90BF90AF90AB
:102B70009F908F907F906F905F904F903F902F909D
:102B800008956CE0EBCDCF93DF93EB010E948D377E
:102B90008883CE01DF91CF910895CF92DF92EF929B
:102BA000FF920F931F93CF93DF93CDB7DEB7E497D8
:102BB000CDBFDEBFBC01E091172AF091182AE730A3
:102BC000F10508F08FC0E951FA4E0C947938EE15F2
:102BD00039168816D116AF17BC17C417CE018596C3
:102BE0000E94F80ABE016B5D7F4FCE0101960E94E4
:102BF000F80A8C8190E00097C9F18D3091050CF0B6
:102C00000C972D811F922F939F938F9383EE90ECBF
:102C10009F938F937E0120E3E20EF11CFF92EF92CF
:102C20000E940C3DBE016B5D7F4FCE0101960E945C
:102C3000F80A8B811F928F938A811F928F938BEE5C
:102C400090EC9F938F938E01055D1F4F1F930F9301
:102C50000E940C3DB70180E00E94FD0CB80181E0AC
:102C60000E94FD0C6BED70EC82E038C08CE090E0CF
:102C7000C8CFCE0101960E948D0F8A8D8F93898DCA
:102C80008F93888D8F938F898F9384EF90EC9F9390
:102C90008F938E01055D1F4F1F930F930E940C3D74
:102CA000B80180E00E94FD0C6B8D7C8D8D8D9E8D1A
:102CB0000E94B23A7F936F938AEF90EC9F938F9329
:102CC000065011091F930F930E940C3DB80181E03B
:102CD0000E94FD0CBE01615E7F4F8CA10E94FD0C25
:102CE000CDBFDEBF0E9474096093132A7093142A2B
:102CF0008093152A9093162AE496CDBFDEBFDF910C
:102D0000CF911F910F91FF90EF90DF90CF9008959A
:102D1000CE0101960E948D0F6F89788D898D9A8DD5
:102D20000E94B23A7F936F938AEF90EC9F938F93B8
:102D30006E0130E3C30ED11CDF92CF920E940C3D96
:102D40006B857C858D859E850E94B23A7F936F93BB
:102D50008EEF90EC9F938F937E014BE2E40EF11C7B
:102D6000FF92EF920E940C3D8A898F9389898F93FD
:102D700088898F938F858F9384E091EC9F938F93B5
:102D80008E010B5D1F4F1F930F930E940C3DB601E8
:102D900080E00E94FD0CB70181E00E94FD0CB801AB
:102DA00063CFCE0101960E948D0F0E94740900919D
:102DB0001A2A10911B2A20911C2A30911D2A6B017E
:102DC0007C01C01AD10AE20AF30A97018601093B85
:102DD0001B402105310580F060931A2A70931B2A4D
:102DE00080931C2A90931D2A8091192A90E00196C5
:102DF000837099278093192A8091192A8E01005D8A
:102E00001F4F9E01255D3F4F7901813009F44FC06E
:102E1000A8F0823009F473C0833009F488C0B80187
:102E200080E00E94FD0CB70181E00E94FD0CBE0114
:102E30006B5D7F4F82E00E94FD0C54CFBE016F5F3F
:102E40007F4FCE0185960E94F80A88A590E00097F2
:102E500059F18D3091050CF00C9729A51F922F93F5
:102E60009F938F9383EE90EC9F938F931F930F9379
:102E70000E940C3D6F89788D898D9A8D0E94B23A9F
:102E80007F936F938AEF90EC9F938F93FF92EF92D3
:102E90000E940C3DBE01615E7F4FCE0185960E946F
:102EA000F63CCDBFDEBFBBCF8CE090E0D6CFBE01FD
:102EB0006F5F7F4FCE0185960E94F80A8FA11F9207
:102EC0008F938EA11F928F938BEE90EC9F938F9395
:102ED0001F930F930E940C3D6B857C858D859E858D
:102EE0000E94B23A7F936F938EEF90EC9F938F93F3
:102EF000FF92EF920E940C3D6AE071ECCECF8A897E
:102F00008F9389898F9388898F938F858F9384E09E
:102F100091EC9F938F931F930F930E940C3D6FE052
:102F200071ECC7010E94F63C64E171ECB6CF8E896A
:102F30008F938D898F938C898F938B898F9384E066
:102F400091EC9F938F931F930F930E940C3D69E127
:102F500071ECC7010E94F63C6EE171EC9ECF63E21A
:102F600071EC80E00E94FD0C68E271EC81E00E944F
:102F7000FD0C6FE271EC5ECF64E371EC80E00E94C7
:102F8000FD0C69E371ECF2CF6EE371EC80E00E941E
:102F9000FD0C63E471EC81E00E94FD0C68E471ECCF
:102FA00049CFE0E2FBE24481558170E060E0818539
:102FB00092850C94EF3CCF92DF92EF921F93CF93C8
:102FC000DF936B01E82E13E0D0E0C0E08091222B6C
:102FD0009091232BC817D90758F48E2DB6010E9463
:102FE0006F04AB01BC01CE010E94FE032196EECF1F
:102FF0000E94390868EC70E080E090E00E940609C9
:103000000E94D1170E94390868EC70E080E090E0DF
:103010000E9406091150C1F6DF91CF911F91EF90E8
:10302000DF90CF9008954F925F926F927F92AF9210
:10303000BF92CF92DF92EF92FF920F931F93CF93A5
:10304000DF93CDB7DEB72997CDBFDEBF8C017B0103
:103050006A010E9474092B013C01809174BF909118
:1030600075BFA09176BF8F839887A98721E043E041
:1030700050E0BE01695F7F4FD8011C968D919C91F5
:103080000E94C711811114C0B12C8B2D2996CDBF80
:10309000DEBFDF91CF911F910F91FF90EF90DF90F6
:1030A000CF90BF90AF907F906F905F904F900895BA
:1030B000C8010E94D20A87FF07C06AE070E080E082
:1030C00090E00E940609F4CF46E050E0BE016F5F39
:1030D0007F4FF801848595850E942A05B82E8823A4
:1030E00099F26A817B81762767277627CB01B0E04A
:1030F000A0E09C01AD0184E0220F331F441F551F47
:103100008A95D1F7AC808A2D90E064E095958795FB
:103110006A95E1F7092E000CAA0BBB0BBC01CD018F
:10312000622B732B842B952B0E946E3620E030E0AF
:1031300048EC52E40E94CF3620E030E040E855E30E
:103140000E94CF36D80114966D937D938D939C93F6
:1031500017976A2D6F7070E090E080E0982F872FAE
:10316000762F66272D81622B982F872F762F662743
:103170002E81622B0E946E3620E030E048E453E45A
:103180000E94CF3620E030E040E855E30E94CF3681
:1031900020E030E048E452E40E94D339F801608333
:1031A000718382839383C114D10481F1F601349633
:1031B00080E2DF011D928A95E9F784E290E0A0E0C9
:1031C000B0E0F60180839183A283B383D8011A967D
:1031D0008D919C91B0E0A0E084839583A683B78312
:1031E0008DE090E0A0E0B0E080879187A287B38770
:1031F000408A518A628A738AF80180819181A28112
:10320000B381F601848B958BA68BB78BE114F10407
:1032100009F43BCFF701349680E2DF011D928A95D5
:10322000E9F784E290E0A0E0B0E0F70180839183C9
:10323000A283B383D80118968D919C91B0E0A0E051
:1032400084839583A683B7838DE090E0A0E0B0E00F
:1032500080879187A287B387408A518A628A738A5E
:10326000F80184819581A681B781F701848B958BC4
:10327000A68BB78B0ACFAB0170E060E0FC018481C4
:1032800095810E94131881E0089550E040E0FC0110
:10329000848195810E94131881E008952F923F92B6
:1032A0004F925F926F927F928F929F92AF92BF9256
:1032B000CF92DF92EF92FF920F931F93CF93DF9302
:1032C000CDB7DEB7C054D109CDBFDEBF7C010E94AF
:1032D00074096DA37EA38FA398A78091382B90913A
:1032E000392BA0913A2BB0913B2BADA0BEA0CFA023
:1032F000D8A4A81AB90ACA0ADB0AD601C50181975F
:10330000A105B10530F18091362B9091372B833098
:10331000910509F414C2A0F5009709F474C002974E
:1033200009F474C00E943908ADA0BEA0CFA0D8A4F3
:10333000A092382BB092392BC0923A2BD0923B2BD3
:1033400080913D2B90913E2B019680933D2B909345
:103350003E2BC05CDF4FCDBFDEBFDF91CF911F9111
:103360000F91FF90EF90DF90CF90BF90AF909F9024
:103370008F907F906F905F904F903F902F90089527
:103380008530910509F4E4C208F494C2069751F619
:10339000B701CE0101960E94F80A0E94D117209130
:1033A000222B3091232B8C816CE00E940438492F12
:1033B000429FC001439F900D11246CE070E00E9479
:1033C00010387B014D81429FC001439F900D112415
:1033D0006CE370E00E9410386B0140E050E06FEF4A
:1033E00070E0C7010E94FE034FEF50E060E070E024
:1033F000C601EC14FD0421F44FEF50E0BA01C701FF
:103400000E94FE038FCF0E94D1178CCF20E030E0C6
:1034100048EC52E4D70156966D917D918D919C9127
:1034200059970E94403A6B017C0120E030E0A901ED
:103430000E94693687FD78C120E030E040E85FE314
:10344000C701B6010E94E83A18160CF471C120E0D9
:1034500030E040E151E4C701B6010E94CF366B0174
:103460007C010E94B23A4B01072E000C880B990B8D
:103470000E9470369B01AC01C701B6010E94D3398E
:103480002B013C016401CC0CDD1CC80CD91CF601DD
:10349000E15EFF431F01FFEF8F1A9F0A0AE08016CB
:1034A00091041CF039E0832E912C7401EE0CFF1C6A
:1034B0008E0C9F1C9401215E3F434901D101AC90C9
:1034C000B12CF901608170E06A197B09072E000CAC
:1034D000880B990B0E947036A30192010E94CF368F
:1034E0006B017C01B501BB0C880B990B0E947036F7
:1034F0009B01AC01C701B6010E94D4390E94B93AC0
:10350000162FD1011196AC90B12CF401618170E0BD
:103510006A197B09072E000C880B990B0E947036E4
:10352000A30192010E94CF366B017C01B501BB0C57
:10353000880B990B0E9470369B01AC01C701B60144
:103540000E94D4390E94B93AB62ED1011296CC907D
:10355000D12CF401628170E06C197D09072E000CFA
:10356000880B990B0E947036A30192010E94CF36FE
:103570002B013C01B601DD0C880B990B0E947036C3
:103580009B01AC01C301B2010E94D4390E94B93A37
:10359000412F50E01695212F30E0241B350BEB2DE9
:1035A000F0E0B6948B2D90E08E1B9F0BA62FB0E021
:1035B000669570E06A1B7B0BF12CE12C5901330FEF
:1035C000CC08DD08A9A6BAA6CBA6DCA65A01550FE1
:1035D000CC08DD08ADA6BEA6CFA6D8AA5C01990F7F
:1035E000CC08DD08A9AABAAACBAADCAA5F01FF0F02
:1035F000CC08DD08ADAABEAACFAAD8AE5B01770F72
:10360000CC08DD08A9AEBAAECBAEDCAE5D01BB0F17
:10361000CC08DD082196ACAEBDAECEAEDFAE2197B4
:10362000C090222BD090232BEC14FD0408F07ACE0E
:10363000B7010F2C000C880B990B0E9470364B01C0
:103640005C01B60190E080E00E946E369B01AC0107
:10365000C501B4010E94403A2AE939E949E95EE32B
:103660000E94CF362B013C0169A57AA58BA59CA5AC
:103670000E947036A30192010E94CF364B015C017B
:103680006DA57EA58FA598A90E9470369B01AC01FF
:10369000C501B4010E94D4390E94B93AD62E69A955
:1036A0007AA98BA99CA90E947036A30192010E945D
:1036B000CF364B015C016DA97EA98FA998AD0E9400
:1036C00070369B01AC01C501B4010E94D4390E943F
:1036D000B93A162F69AD7AAD8BAD9CAD0E947036AC
:1036E000A30192010E94CF362B013C0121966CADC3
:1036F0007DAD8EAD9FAD21970E9470369B01AC01D0
:10370000C301B2010E94D4390E94B93A862F6D2DAF
:10371000712F0E946F04AB01BC01C7010E94FE0320
:103720000FEFE01AF00A7CCFC12CD12C76018FCE9E
:10373000C12CD12C50E8E52E5FE3F52E88CEB701E1
:10374000CE0101960E948D0FCF84D888E988FA882F
:1037500020E030E04FE754E4C701B6010E94E83AA8
:10376000109110C0B09011C0A09012C01816B4F102
:1037700020E030E84CE754E4C701B6010E94E83A83
:10378000109113C0B09014C0A09015C0181634F159
:1037900020E030E04AE754E4C701B6010E94E83A6D
:1037A000109116C0B09017C0A09018C01816B4F0B1
:1037B00020E030E847E754E4C701B6010E94E83A48
:1037C000109119C0B0901AC0A0901BC0181634F008
:1037D00010911CC0B0901DC0A0901EC060913D2BE8
:1037E00070913E2B90E080E00E946E362DEC3CEC18
:1037F0004CEC5DE30E94CF360E94ED3A20E030E0D1
:1038000040E85FE30E94D43920E030E040E05FE32D
:103810000E94CF366B017C016B2D70E090E080E060
:103820000E947036A70196010E94CF3620E030E05A
:10383000A9010E94D4390E94B93AB62E6A2D70E0CF
:1038400090E080E00E947036A70196010E94CF367A
:1038500020E030E0A9010E94D4390E94B93AA62E96
:10386000612F70E090E080E00E947036A701960121
:103870000E94CF3620E030E0A9010E94D4390E9496
:10388000B93A162FF12CE12C8091222B9091232B09
:10389000E816F90608F046CD612F7B2D8A2D0E948F
:1038A0006F04AB01BC01C7010E94FE032FEFE21AB7
:1038B000F20AEACFD12CC12CF12CE12C6091222B01
:1038C0007091232BE616F70608F02CCD20913D2BA6
:1038D00030913E2B220F331FC6010E941038C901C0
:1038E000860F971F9C01232F33272295269527703B
:1038F00060E07FEF22303105D9F06CF421153105FD
:10390000A1F0682F60957FEF2130310581F06FEFD6
:1039100070E080950DC023303105B1F0682F70E064
:1039200024303105A1F78FEF03C06FEF782F80E0CF
:103930000E946F04AB01BC01C7010E94FE033FEF70
:10394000E31AF30AD394BACF60E0782F7095EBCFE7
:1039500060913D2B70913E2B90E080E00E946E368E
:103960002DEC3CEC4CE45DE30E94CF360E94ED3A36
:1039700020E030E040E85FE30E94D43920E030E00E
:1039800040E05FE30E94CF3620E030E04FE753E4B1
:103990000E94CF3620E030E0A9010E94D4390E9475
:1039A000B93A162FF12CE12C8091222B9091232BE8
:1039B000E816F90608F0B6CC612F712F812F0E940E
:1039C0006F04AB01BC01C7010E94FE035FEFE51A63
:1039D000F50AEACF0C94663C0C94663C0F931F9357
:1039E000CF93DF938C01EB0188E2FB0111928A9562
:1039F000E9F74BE050E06DE471ECCE010E94FD3C34
:103A00001B8681E090E0A0E0B0E08C879D87AE87C8
:103A1000BF87F80182819381092E000CAA0BBB0B92
:103A2000888B998BAA8BBB8B8DE090E0A0E0B0E0F7
:103A30008C8B9D8BAE8BBF8B1CA21DA21EA21FA2C6
:103A400080E090E0A0E2B2EC8C8F9D8FAE8FBF8FB4
:103A500080E090E0AAEAB2E4888F998FAA8FBB8FAA
:103A60008AE999E9A9E9BEE388A399A3AAA3BBA31C
:103A7000DF91CF911F910F9108950F931F93CF93D3
:103A8000DF938C01EB0188E2FB0111928A95E9F743
:103A90004BE050E065E571ECCE010E94FD3C1B86D9
:103AA00081E090E0A0E0B0E08C879D87AE87BF8783
:103AB000F80182819381092E000CAA0BBB0B888B25
:103AC000998BAA8BBB8B8CE090E0A0E0B0E08C8B54
:103AD0009D8BAE8BBF8B1CA21DA21EA21FA21C8E93
:103AE0001D8E1E8E1F8E80E090E0A8ECB2E4888FC1
:103AF000998FAA8FBB8F80E090E0A0E0B0E488A30C
:103B000099A3AAA3BBA3DF91CF911F910F91089511
:103B10001F920F920FB60F9211242F933F934F9342
:103B20005F936F937F938F939F93AF93BF934091D6
:103B300045295091462960914729709148298091E3
:103B40004329909144292091412930914229420FE3
:103B5000531F611D711D20913F2930914029820F13
:103B6000931F883E23E0920730F0885E93404F5FBA
:103B70005F4F6F4F7F4F8093432990934429409329
:103B8000452950934629609347297093482980918D
:103B90004D2990914E29A0914F29B091502901961D
:103BA000A11DB11D80934D2990934E29A0934F29BB
:103BB000B093502981E08093B60ABF91AF919F9155
:103BC0008F917F916F915F914F913F912F910F90C6
:103BD0000FBE0F901F9018951F920F920FB60F9265
:103BE00011242F933F934F935F936F937F938F9302
:103BF0009F93AF93BF93EF93FF9385E00E94AD092E
:103C0000FF91EF91BF91AF919F918F917F916F91B4
:103C10005F914F913F912F910F900FBE0F901F908A
:103C200018951F920F920FB60F9211242F933F9366
:103C30004F935F936F937F938F939F93AF93BF93B4
:103C4000EF93FF9384E00E94AD09FF91EF91BF9144
:103C5000AF919F918F917F916F915F914F913F9124
:103C60002F910F900FBE0F901F9018951F920F92DB
:103C70000FB60F9211242F933F934F935F936F933F
:103C80007F938F939F93AF93BF93EF93FF9383E0C3
:103C90000E94AD09FF91EF91BF91AF919F918F91DC
:103CA0007F916F915F914F913F912F910F900FBE38
:103CB0000F901F9018951F920F920FB60F9211241C
:103CC0002F933F934F935F936F937F938F939F9324
:103CD000AF93BF93EF93FF9382E00E94AD09FF91F2
:103CE000EF91BF91AF919F918F917F916F915F9174
:103CF0004F913F912F910F900FBE0F901F901895ED
:103D00001F920F920FB60F9211242F933F934F9350
:103D10005F936F937F938F939F93AF93BF93EF9333
:103D2000FF9381E00E94AD09FF91EF91BF91AF91A8
:103D30009F918F917F916F915F914F913F912F91C3
:103D40000F900FBE0F901F9018951F920F920FB6F5
:103D50000F9211242F933F934F935F936F937F9311
:103D60008F939F93AF93BF93EF93FF9380E00E9455
:103D7000AD09FF91EF91BF91AF919F918F917F918D
:103D80006F915F914F913F912F910F900FBE0F90C8
:103D90001F9018951F920F920FB60F9211242F9318
:103DA0003F934F935F936F937F938F939F93AF93C3
:103DB000BF93EF93FF9388E29AE20E940E06FF9171
:103DC000EF91BF91AF919F918F917F916F915F9193
:103DD0004F913F912F910F900FBE0F901F9018950C
:103DE0001F920F920FB60F9211242F933F934F9370
:103DF0005F936F937F938F939F93AF93BF93EF9353
:103E0000FF93E091342AF091352A818181FD2FC002
:103E1000608180913A2A8F5F8F7390913B2A891736
:103E200041F0E0913A2AF0E0E85DF54D618F809332
:103E30003A2A8091C12A9091C22A009739F0DC0178
:103E4000ED91FC910190F081E02D0995FF91EF91AA
:103E5000BF91AF919F918F917F916F915F914F91A2
:103E60003F912F910F900FBE0F901F90189580815A
:103E7000EDCF1F920F920FB60F9211240F931F9345
:103E80002F933F934F935F936F937F938F939F9362
:103E9000AF93BF93CF93DF93EF93FF938091352937
:103EA000C091E72AD0E087FF52C01092AC0A10926E
:103EB000AD0A809135298F5F80933529809135290E
:103EC000082E000C990B8C179D072CF48091352936
:103ED0008C300CF467C0C091AC0AD091AD0A6091EF
:103EE000042870910528809106289091072820E4E5
:103EF00032E44FE050E00E94383854E03695279580
:103F00005A95E1F740E85EE3249FC001259F900D9C
:103F1000349F900D11249695879596958795AE01BF
:103F200070E060E04C5F5F4F6F4F7F4F8C0130E07F
:103F300020E0401751076207730708F07EC08093A6
:103F4000AC0A9093AD0A8FEF809335295EC08091C3
:103F50003529082E000C990B8C179D070CF0A9CF62
:103F6000E09135298E2FEE0F990BFC01EE0FFF1F0C
:103F7000E80FF91FED53F54D808186FF9ACFE09150
:103F800035298E2FEE0F990BFC01EE0FFF1FE80F66
:103F9000F91FED53F54D808170E060E08F730E9452
:103FA0008D0787CFE09135298E2FEE0F990BFC01FD
:103FB000EE0FFF1FE80FF91FED53F54D808186FFCF
:103FC00012C0E09135298E2FEE0F990BFC01EE0FF8
:103FD000FF1FE80FF91FED53F54D808161E070E0A0
:103FE0008F730E948D07E09135298E2FEE0F990B6C
:103FF000FC01EE0FFF1FE80FF91FED53F54D818116
:1040000092818093AC0A9093AD0A81E08093A60AD6
:10401000FF91EF91DF91CF91BF91AF919F918F91E0
:104020007F916F915F914F913F912F911F910F91D0
:104030000F900FBE0F901F9018952496C093AC0A56
:10404000D093AD0A80CF1F920F920FB60F9211241A
:104050002F933F934F935F936F937F938F939F9390
:10406000AF93BF93CF93EF93FF93C091AB08C2FF81
:104070000AC010922829109227291092262984E03C
:104080000E946D0B14C0C6FF2FC08091252981307E
:1040900051F480912829E0912329F091242990E07E
:1040A000099510922529C0FF14C00E947D0BFF9135
:1040B000EF91CF91BF91AF919F918F917F916F9130
:1040C0005F914F913F912F910F900FBE0F901F90D6
:1040D000189580E48093AB0881E00E946D0B80917D
:1040E000AB0885FFE4CFE1CFC7FF5CC0C3FF08C0CA
:1040F00010922829109227291092262983E0C0CFF8
:104100008091A90880668093A9088091AB0881FFFF
:104110002CC080912729882349F08091AB0884FF27
:1041200005C082E08093AA0881E0AACF9091272958
:10413000809126299817A8F4E091272980911E29BB
:1041400090911F29E80FF92FF11D80818093AD0810
:10415000809127298F5F8093272983E08093AA0885
:10416000A6CF82E08093AA088BCF909128298091D6
:104170002229981790F48091AD08E0912829209188
:10418000202930912129E20FF32FF11D80838091A6
:1041900028298F5F80932829E0CF86E08093AA08A2
:1041A00082E06ECF85E06CCF1F920F920FB60F9218
:1041B00011242F933F938F939F93EF93FF938091BD
:1041C000A508982F9C70E1F08091A50894E082FFEB
:1041D00093E0909333298093A50881E090E0809349
:1041E000292990932A2910923429FF91EF919F91C8
:1041F0008F913F912F910F900FBE0F901F901895A8
:1042000086FF4EC02091302990912F298091A508DA
:1042100084FF15C080912C29882379F083E0809356
:10422000A40885E0809333291092342981E090E03E
:104230008093292990932A29D8CF81E0F0CF8091CB
:104240002E29821790F4E0912E29809131299091A6
:104250003229E80FF92FF11D80818093A808809101
:104260002E298F5F80932E29C0CF80912D29891709
:1042700060F484E090E08093292990932A2980912A
:104280002B2981608093A708B0CF80912C298823A7
:1042900029F083E08093A40881E0C4CF81E0FACFC5
:1042A00087FF40C090912D2980912F299817D8F42D
:1042B0008091A808E0912D2920911C2930911D2979
:1042C000E20FF32FF11D808380912D298F5F809362
:1042D0002D2990912F2980912D298917D8F482E0DA
:1042E0008093A40882CF80912C29882389F087E0CD
:1042F0008093A40882E0809333291092342981E0CE
:1043000090E08093292990932A2910922F296DCF2C
:1043100085E0EECF80912C29882311F087E0BACF79
:1043200085E0B8CF86E07ECF90E0FC01EA54F0440F
:10433000E081EF3F39F18F549F43DC012C91822FB4
:10434000880F880F880F8E0F8033E0F490E0880F7D
:10435000991FDC01AF54B64D6D937C938F5A964DE7
:10436000DC011D921C92B0E22B9FC00111249C5FC6
:104370004096E80FF92FF11D8081887F808380812E
:104380008160808308950F931F93CF93DF931092E2
:104390002A2A10922B2A48EE53E060E070E0409306
:1043A0002C2A50932D2A60932E2A70932F2A89E568
:1043B00090EC8093282A9093292A80E698E08093B5
:1043C000342A9093352A88E18093362A89E18093B4
:1043D000372A80E48093382A10923A2A10923B2A96
:1043E00010923C2A10923D2A86E280933E2A109237
:1043F0003F2A1092402A1092C12A1092C22A84E1C8
:104400009BE21092162B1092172B4093182B50936F
:10441000192B60931A2B70931B2B23E730EC2093FE
:10442000142B3093152B10925C3110925D31109249
:104430006A3110926B3110926C3110926D31109282
:104440006E3110926F312FEC30EC2093703130933D
:104450007131809392319093933126E72093943178
:1044600025E4209396314AE959E969E97FE34093CD
:104470009731509398316093993170939A3110929B
:104480009B3110929C3123E22093953180939D3192
:1044900090939E3187EA91E30E94D80370E060E038
:1044A00082E00E94E10661E070E082E00E9446073F
:1044B00070E060E083E00E94E10661E070E083E08C
:1044C0000E94460788E094E0809340319093413108
:1044D00081E08093443188EA94E080934231909364
:1044E000433180E280934531109247311092483138
:1044F0001092493110924A318BE39FE10197F1F715
:104500008091080481709091A80495FD826000E478
:1045100011E3809346310093EC2A1093ED2A65E174
:104520007FE082E00E949421C1E0C0934B31009370
:10453000EE2A1093EF2A6BE17FE083E00E94942142
:1045400080914B318F5F80934B3110924C311092A0
:104550004D3110924E3110924F3184E080935031A2
:1045600010925131109252311092533110925431B5
:104570001092553110925631109257311092583195
:104580001092593110925A31C0935B31C091E72A91
:10459000CC3008F08BC081E08C0F8093E72AC09369
:1045A0002E31D0E060910428709105288091062872
:1045B0009091072820E432E44FE050E00E94383820
:1045C00084E0369527958A95E1F74CED55E0249FD8
:1045D000C001259F900D349F900D11249C013695AC
:1045E000279536952795CE01880F991FC80FD91F9B
:1045F000CD53D54D29833A830FE61EE2CFE3DBE2AC
:10460000CE010E94D60FA2960C171D07C9F710E025
:1046100000E0CE01800F911F0E94D60F0E5D1F4F4C
:104620000E3E1105B1F7D0E0C0E0CE01815A904DA9
:104630000E94D803A496C03B81E0D807B1F784E17B
:1046400091E30E94D8038AE191E30E94D80381E0BC
:104650008093202B1092212B1092222B1092232B2F
:104660001092242B1092252B2FEF3FEF2093262B17
:104670003093272B1092282B1092292B10922A2B43
:1046800080932B2B10922C2B92E090932D2B8093C8
:104690002E2B10922F2B1092302B1092312B109228
:1046A000322BDF91CF911F910F9108958FEF80935F
:1046B0002E31A2CFCF93DF93CDB7DEB7C557D10947
:1046C000CDBFDEBF88ED90E084BF9093610080E0B5
:1046D00094E2A4EFB0E08093042890930528A0937F
:1046E0000628B09307288091020686608093020610
:1046F00080910006816080930006809102068F7C85
:10470000809302068091A0008F788093A000809112
:1047100002068061809302061092E20581E0809398
:10472000E40583E08093010A8FEF90E08093260AEE
:104730009093270A80E890E08093380A9093390A92
:1047400080933A0A90933B0A80933C0A90933D0AE7
:104750008BE08093000A8091E50581608093E505F8
:104760008091E50582608093E505E0E8FAE037E0B6
:104770002FEF90E885E031832487958780837096BA
:10478000E03C0AE0F007B9F780E094E080934B2921
:1047900090934C2980914B2990914C292FEF30E038
:1047A000B9010E9410386093492970934A29809179
:1047B0004B2990914C29E8EEF3E0BF010E9410389C
:1047C000609341297093422980914B2990914C2903
:1047D000BF010E94103880933F2990934029209375
:1047E000BC0A3093BD0A8091B50A81608093B50AF6
:1047F00084E08093B00A8091B00A81608093B00A0F
:10480000789440E052EC61E070E088E29AE20E9425
:10481000BE0E8DEA94E00E94811284E19BE20E9428
:10482000840E80915C3190915D31009711F00E946F
:10483000663C86E090E00E94CA3B28E6DC012C93AF
:1048400024E13BE211962D933C93129713961C9210
:10485000139720E230E014962D933C9315978093A4
:104860005C3190935D310E94900581110CC087E10D
:1048700093E00E94811288E894E00E9481126B9676
:104880001FAE6B9717C30E94091290E0880F892F03
:10489000881F990B892B09F4FAC08AEF92E00E94D5
:1048A00081124BE050E06EEE72E0CE0101960E9464
:1048B0006036CE010A960E94EB0A082FE981E15486
:1048C000E331D8F40E2E000CFF0BE759FB4D0C948E
:1048D0007938D2247D247D24E6247D247C247D2403
:1048E0007D247D24C6247D247D24D924E424E2244F
:1048F0007D247D247D24E02412E0CE0105960E94D3
:10490000EB0AF82E48E050E065EE72E0CE01019629
:104910000E946036CE0101960E94EB0AE82ECE017D
:1049200004960E94EB0AD82ECE0107960E94EB0A4D
:10493000382F19821A822AE0622F0E940438982F99
:10494000880F890F880F830F8A838D2D0E9404386A
:10495000982F880F890F880F8D0D8B838E2D0E94C5
:104960000438982F880F890F880F8E0D8C83602F45
:1049700070E02F2D30E0ECE4F7E081E0811740F5A6
:104980009491290F311D8F5F3196F8CF8A8111E004
:10499000813609F4B2CF8B8117E08E3609F0ADCFA6
:1049A00016E0ABCF8B8118E0823709F0A6CF14E078
:1049B000A4CF8B8115E0823709F09FCF13E09DCF04
:1049C00019E09BCF1AE099CF1BE097CF1CE095CF61
:1049D000133028F0802F837011F42F5F3F4FCB01ED
:1049E00003969695879596958795EDE6F1E06E9FEF
:1049F000A0016F9F500D7E9F500D11244B5F5F4FA4
:104A0000840F951F820F931F67E070E00E9410389B
:104A1000811101C087E08D832AE08F2D622F0E94D3
:104A20000438982F880F890F880F8F0D8E83812F60
:104A30000E940438982F990F890F880F180F1F8331
:104A4000802F0E940438982F880F890F880F800FBD
:104A5000888721E048E050E0BE016F5F7F4F809182
:104A60005C3190915D310E94C7110E9409129FE054
:104A70009DA38F778EA321E042E050E0BE016B5DE5
:104A80007F4F80915C3190915D310E94C71164E14C
:104A900070E080E090E00E94060980916A31909178
:104AA0006B31009711F00E94663C86E090E00E9416
:104AB000CA3B28E3FC01208324E13BE221833283CB
:104AC000138220E230E02483358380936A3190930F
:104AD0006B310E949005882309F4F5C08AEB898325
:104AE00021E041E050E0BE016F5F7F4F80916A316D
:104AF00090916B310E94C7116B968FAF6B97882393
:104B000009F4E1C064E170E080E090E00E940609F1
:104B10008EE591E30E94D20A87FF05C06AE070E04B
:104B200080E090E0F3CF81EE898388E08A831B8266
:104B300021E043E050E0BE016F5F7F4F80916A311A
:104B400090916B310E94C7118EE591E30E94D20AC9
:104B500087FF07C06AE070E080E090E00E940609ED
:104B6000F3CF8EE591E30E94D20A83FFACC080911F
:104B70006E3190916F31009739F0DC01ED91FC912D
:104B80000280F381E02D099580916C3190916D3117
:104B9000009739F0DC01ED91FC910280F381E02D6A
:104BA000099586E090E00E94CA3BFC0182E99FEBF8
:104BB0008083918380E290E1828393830EE511E309
:104BC00004831583E0936E31F0936F3186E090E0BB
:104BD0000E94CA3BFC0184E89FEB8083918381E2C1
:104BE00090E18283938304831583E0936C31F09387
:104BF0006D3191ECE92E95E0F92E18E81E1969E067
:104C000076E0610F21E030E0AE014F5F5F4F80E75B
:104C100091E30E94400A8981883509F057C080914C
:104C2000723190917331892B09F050C086EB8983E2
:104C300069E176E0610F21E030E0AE014F5F5F4F48
:104C400080E791E30E94EF0964E670E080E090E085
:104C50000E94060968EC70E080E090E00E9406097E
:104C6000612F6E0D2AE130E048E751E380E791E3E0
:104C70000E94400A8DE296E0012F080F40E16CE1AE
:104C8000802F0E94A50A40E860EE802F0E94A50AAE
:104C90008EE296E0180F40E06CE1812F0E94A50A99
:104CA00040E460EE812F0E94A50A43E063E0802F7C
:104CB0000E94A50A8091723190917331892B69F419
:104CC00080EA92E0D6CD89EC92E0D3CD82E090E00C
:104CD0008093723190937331EDCF83E2809395315D
:104CE00080919D3190919E31DC01ED91FC9106887F
:104CF000F789E02D63E2099580919D3190919E3175
:104D0000DC01ED91FC910190F081E02D60E10995CD
:104D100080919D3190919E31DC01ED91FC91028C4E
:104D2000F38DE02D0995182F6AE070E080E090E0A7
:104D30000E940609123009F4ABC048F41123A1F017
:104D400081E392E0113059F08EE891E008C08AECDE
:104D500091E0133021F08EEA91E01430A9F70E941F
:104D6000811283E892E085CD80E190E080939B31D1
:104D700090939C310E94740960939F317093A0318D
:104D80008093A1319093A23180919D3190919E3179
:104D9000DC01ED91FC910688F789E02D6091953159
:104DA000099562E470E080919D3190919E310E945E
:104DB000E80980919D3190919E31DC01ED91FC914B
:104DC000028CF38DE02D0995182F80919D319091E3
:104DD0009E31DC01ED91FC910688F789E02D609110
:104DE0009531099565E670E080919D3190919E31F5
:104DF0000E94E80980919D3190919E31DC01ED91F6
:104E0000FC91028CF38DE02D0995182B80919D313A
:104E100090919E31DC01ED91FC910688F789E02D9F
:104E200060919531099560919B3170919C31809191
:104E30009D3190919E310E94E80980919D31909121
:104E40009E31DC01ED91FC91028CF38DE02D0995F2
:104E5000182B6AE070E080E090E00E9406091230B2
:104E600009F46BC250F41123B1F081E691E01130E6
:104E700009F475CF8EEB90E072CF8AEF90E013309B
:104E800009F46DCF8EED90E0143009F468CFF2CFC5
:104E90008CEF91E064CF85E4809396311092A3313A
:104EA0001092A4311092A5311092A6318EE592E0B5
:104EB0000E948112809177BF909178BFA09179BFB5
:104EC00089839A83AB838AE190E00E94CA3B20E702
:104ED00030E0FC012083318323E030E02283338300
:104EE0002CE030E024833583178A8093112A909335
:104EF000122ABE016F5F7F4F0E949D0D8091112A83
:104F00009091122A0E94860D1092172A1092182A48
:104F10001092132A1092142A1092152A1092162A0F
:104F20001092192A10921A2A10921B2A10921C2AE7
:104F300010921D2A81E393E00E94811262E070E0EA
:104F4000809150310E941707F894109247311092C7
:104F500048311092493110924A31789410924C3174
:104F600010924D3110924E3110924F318DE493E0FA
:104F70000E94811285E08093203186E08093213168
:104F800087E08093223188E08093233100E211E3AF
:104F900084E2E82E81E3F82E61E070E0D8018D9183
:104FA0008D010E941707F801319770E060E0808161
:104FB0000E948D07E016F10679F780912E318C3032
:104FC00008F048C061E070E089E00E941707809116
:104FD0002E31282F30E0A901440F551FFA01E20FAE
:104FE000F31FED53F54D9081907C99609083109262
:104FF0002F3110923031ECE06E2F0E9404388E9FDA
:10500000C0011124B0E0A0E0BC016A0F7B1FFB01CE
:10501000EE0FFF1FE60FF71FED53F54D608166FDA4
:1050200011C01196AC30B10579F784E08093A00AE5
:105030001092A10A81E08093A50A8091A00A816064
:105040008093A00A240F351FF901ED53F54D80819F
:10505000806480838AE590E00E948D041092243160
:10506000109225311092263110922731109228315A
:105070001092293188EE93E0A0E0B0E080932A31CD
:1050800090932B31A0932C31B0932D3110923E315F
:1050900010923F312AE530E02093313130933231A4
:1050A00021E030E0209333313093343110923531A8
:1050B0001092363110923731109238318093393155
:1050C00090933A31A0933B31B0933C3111E010936F
:1050D0003D3184E693E00E94811210921E2A1092C4
:1050E0001F2A8EE090E08093202A9093212A10932B
:1050F000222A1092232A1092242A1092252A1092F2
:10510000262A1092272A8EE793E00E94811210929D
:105110005D2F10925E2F10920F311092103110926D
:1051200011311092123110921331EFE3FBE280E360
:1051300093E0DF018C011D9201501040E1F7EFE692
:10514000FEE28EEEDF011D928A95E9F7EFE5FFE2C0
:1051500080EB91E0DF018C011D9201501040E1F7DE
:105160006DE57FE290E080E00E94C3156EE57FE28E
:1051700081E090E00E94C31580915D2F883110F08E
:1051800010925D2F80915E2F873010F010925E2F6D
:1051900088E993E00E94811288E190E00E94CA3B76
:1051A00028E130E048E050E0009721F430E020E0D2
:1051B00050E040E011E01093202B1092212B4093FF
:1051C000222B5093232B2093242B3093252B2DE03F
:1051D00030E02093262B3093272B1092282B80939E
:1051E000292B90932A2B10932B2B10922C2B22E0FF
:1051F00020932D2B10932E2B10922F2B1092302BAF
:105200001092312B1092322B24E834E02093332B70
:105210003093342B24E02093352B0E94663C70E0C1
:1052200060E08DE00E9417078091262B9091272B3C
:1052300097FD86C061E070E00E94170770E060E0B3
:105240008091262B0E948D071093212B0E94D1174D
:105250000E94390882E090E08093362B9093372BA0
:105260001092382B1092392B10923A2B10923B2B24
:1052700080E880933C2B10923D2B10923E2B80EBCC
:1052800093E00E9481126B968FAC6B97882009F493
:10529000CCC183E694E00E9481126DE571EC80E060
:1052A0000E94FD0C62E671EC81E00E94FD0C67E655
:1052B00071EC82E00E94FD0C68EE73E080E090E00B
:1052C0000E9406096CE671EC80E00E94FD0C61E72B
:1052D00071EC81E00E94FD0C67E771EC82E00E94B6
:1052E000FD0C10E000E03AE0E32EF12C8091222B3F
:1052F0009091232B0817190730F5C801B7010E94B8
:105300001038FC01EE0FFF1FE80FF91FE15EFF43AD
:105310006081718182810E946F04AB01BC01C80170
:105320000E94FE030E94390864E670E080E090E08D
:105330000E9406090F5F1F4FD9CF8CE291E00FCD7D
:105340001092212B83CF64EF71E080E090E00E9407
:1053500006090E94D1170E94390884EE93E00E944A
:10536000811200E012E081E00E94360965E070E001
:1053700080E090E00E94060901501109A1F7109207
:105380002431109225318DEC93E00E94811283E14B
:1053900094E00E9481128AE590E00E948D048AE5E3
:1053A00090E0809331319093323181E090E08093AE
:1053B00033319093343164EF71E080E090E00E94EB
:1053C00006098FEF93E00E94811260ED77E080E0A4
:1053D00090E00E9406098FE494E00E94811281EC23
:1053E00095E098E8981BAB969FAFAB9783E396E068
:1053F000AB969FACAB97980EAF969FAEAF97809051
:105400007ABF90907BBFA0907CBFE3968DAE9EAE9E
:10541000AFAEE39780907DBF90907EBFA0907FBF9E
:10542000E6968DAE9EAEAFAEE69780E396E0AB9685
:105430008FACAB97880EE0968FAEE0970E94740910
:1054400000913B2910913C2920913D2930913E2922
:105450005B016C01A01AB10AC20AD30A9601850148
:10546000023311052105310510F40C94F6356093D3
:105470003B2970933C2980933D2990933E290E94BB
:1054800074096B017C0180914B31823008F016C1A8
:10549000F89480E491E30E94C70E609147317091C7
:1054A00048318091493190914A31789424E030E03C
:1054B00040E050E00E945A3820934E3130934F31F3
:1054C0008091573190915831A0915931B0915A3112
:1054D00097018601081B190B2A0B3B0BD901C80148
:1054E000C397A105B10528F1809150318B3208F4A2
:1054F000E7C080915B3181110C940A3681E090E025
:105500008093513190935231C0925331D0925431A3
:10551000E0925531F09256316B968FAD6B97809338
:105520005B31C0925731D0925831E0925931F092AC
:105530005A3180914E3190914F3120914C313091C0
:105540004D318C01021B130B80934C3190934D31E4
:105550008091513190915231019779F480913A299B
:105560008111D8C081E080933A2910923829109295
:10557000392987E895E00E9481120115110509F487
:10558000FAC080913A298111D8C0209136293091F2
:105590003729C901101611060CF007C20196873091
:1055A000910514F090E080E02817390709F4E3C072
:1055B00080933629909337298093172A9093182A3D
:1055C0001092192A0E94740960931A2A70931B2A58
:1055D00080931C2A90931D2A8091112A9091122A5F
:1055E0000E94860D87E595E00E94A406C0903629AA
:1055F000D09037290D2C000CEE08FF084AE0C701B7
:10560000B601F7FE0DC06DE288E29AE20E945306F1
:1056100066277727CB016C197D098E099F094AE01F
:105620000E9431120E947912A6C08BE294E00E947F
:1056300081126CE771EC80E00E94FD0C6CE671EC6D
:1056400081E00E94FD0C61E871EC82E00E94FD0C9B
:1056500015E0E12EF12C10E000E08091222B9091DA
:10566000232B0817190768F46FEF70E080E00E94A1
:105670006F04AB01BC01C8010E94FE030F5F1F4F06
:10568000ECCF0E94390864EF71E080E090E00E9466
:1056900006090E94D1170E94390864EF71E080E08A
:1056A00090E00E94060901E0E01AF108A1F668EE18
:1056B00073E080E090E00E940609F9CFF894EDCE07
:1056C000082F10E0F801E956FF43B0802FEFB21623
:1056D00009F40FCF0E941C07F801EF54FF43E0814B
:1056E00030E2E39FF0011124FC5F8085B82209F4C9
:1056F00000CF80915B31811105C010925131109221
:1057000052310DCF83E090E080935131909352312C
:1057100080E005CF80913829909139290196893010
:1057200091052CF010923A2981E795E024CF8093DF
:10573000382990933929012BF1F0809138299091E3
:1057400039298230910509F42AC140F4009779F093
:10575000019709F421C187EC94E00BC083309105D7
:1057600009F420C10497B9F78FED94E002C080E4FA
:1057700095E00E9481120E9474090091A33110915A
:10578000A4312091A5313091A631601B710B820BA1
:10579000930B603375478105910508F48EC019821B
:1057A00000915C3110915D3120E041E050E0BE019C
:1057B0006F5F7F4FC8010E94C711882341F047E007
:1057C00050E0BE016F5F7F4FC8010E942A056981CA
:1057D0006F777A81EB81FD818E818F779F81492F51
:1057E00050E034E0559547953A95E1F7242F220F84
:1057F000220F421B440F490F4093A731282F30E05E
:1058000044E0359527954A95E1F7922F990F990F26
:10581000291B220F280F2093A8318F2F90E054E0EE
:10582000959587955A95E1F7982F990F990F891BB0
:10583000880F8F0F8093A9314E2F50E0F4E05595DB
:105840004795FA95E1F7842F880F880F481B440F7E
:105850004E0F4093AA31272F30E0A4E035952795CD
:10586000AA95E1F7822F880F880F281B220F270F98
:105870002093AB31862F90E0B4E095958795BA954B
:10588000E1F7982F990F990F891B880F860F809346
:10589000AC31AE014F5F5F4FBE016B5D7F4F8EE558
:1058A00091E30E941318811186C086E396E00E945E
:1058B00081128BE496E00E9481120E94740900918B
:1058C00026311091273120912831309129316B01F7
:1058D0007C01C01AD10AE20AF30A00912A31109120
:1058E0002B3120912C3130912D31C016D106E2069A
:1058F000F30640F06093263170932731809328316E
:105900009093293180913D31882311F40C94D33543
:105910000E9474096B017C01809135319091363180
:10592000A0913731B0913831B701A601481B590B0E
:105930006A0B7B0B8091393190913A31A0913B31C8
:10594000B0913C31481759076A077B0710F40C9453
:10595000D335209133313091343145E0429FC0013D
:10596000439F900D11242091313130913231820FBB
:10597000931F8738910514F40C94BD3587E890E0A7
:1059800080933131909332318FEF9FEF8093333199
:10599000909334310C94C53589E295E0EACE84E1E8
:1059A00095E0E7CE89EF94E0E4CE019797FFFCCD38
:1059B00086E090E0F9CD8D899E89AF89B88D80937E
:1059C000AD319093AE31A093AF31B093B03189AD8A
:1059D0009AADABADBCAD8093B1319093B231A09391
:1059E000B331B093B43123E030E0AE01475B5F4F99
:1059F000AF966FADAF9780E791E30E94400A2A9679
:105A00009FAD2A972B964FAD2B972C962FAD2C97A9
:105A100022952F706091723170917331672B09F06C
:105A200077C0892F90E0B0E0A0E00CE0880F991FCC
:105A3000AA1FBB1F0A95D1F750E070E060E034E088
:105A4000440F551F661F771F3A95D1F7842B952B6E
:105A5000A62BB72B822B409178315091793170E091
:105A600060E06C017D01E4E0F594E794D794C7947D
:105A7000EA95D1F7C41AD50AE60AF70AF3E0B59514
:105A8000A79597958795FA95D1F7440F551F661FEF
:105A9000771F4C015D01841A950AA60AB70AA50171
:105AA0009401A0917A31B0917B310E947F384B01F3
:105AB0005C010BE0B594A794979487940A95D1F76D
:105AC000A7019601C701B6010E94F4379B01AC0102
:105AD0008CE055954795379527958A95D1F7A091F4
