:100000000C94F0030C9418040C9418040C94180429
:100010000C9418040C9418040C945F1E0C9418048F
:100020000C9418040C9418040C9418040C941804E0
:100030000C9418040C9418040C94DD1F0C948E205E
:100040000C9418040C9418040C9418040C941804C0
:100050000C94F01D0C9418040C9418040C941804BF
:100060000C94151E0C94F31E0C9418040C94180494
:100070000C9418040C94A61D0C9418040C941804E9
:100080000C9418040C9418040C943A1E0C94CB1D78
:100090000C94421D0C94AA1E0C94841E0C941804FB
:1000A00005A84CCDB2D44EB93836A9020C50B9913E
:1000B0008688083CA6AAAA2ABE000000803F5B42B0
:1000C00048313735305D204552524F523A20756ED7
:1000D000646566696E6564206572726F72005B426A
:1000E00048313735305D204552524F523A206F74B7
:1000F000686572206572726F72005B4248313735F5
:10010000305D204552524F523A20726563656976E0
:100110006564204E41434B206F6E207472616E7394
:100120006D6974206F662064617461005B424831C0
:100130003735305D204552524F523A207265636523
:1001400069766564204E41434B206F6E2074726166
:100150006E736D6974206F66206164647265737379
:10016000005B4248313735305D204552524F523A9C
:1001700020746F6F206C6F6E6720666F72207472D0
:10018000616E736D697420627566666572005B42AC
:1001900048313735305D204552524F523A20756E06
:1001A000646566696E6564206572726F72005B4299
:1001B00048313735305D204552524F523A206F74E6
:1001C000686572206572726F72005B424831373524
:1001D000305D204552524F523A2072656365697610
:1001E0006564204E41434B206F6E207472616E73C4
:1001F0006D6974206F662064617461005B424831F0
:100200003735305D204552524F523A207265636552
:1002100069766564204E41434B206F6E2074726195
:100220006E736D6974206F662061646472657373A8
:10023000005B4248313735305D204552524F523ACB
:1002400020746F6F206C6F6E6720666F72207472FF
:10025000616E736D69742062756666657200416CCB
:100260006C2073656E736F727320696E6974696157
:100270006C697A6564207375636365737366756C06
:100280006C790042483137353020696E6974696194
:100290006C697A6174696F6E206661696C6564006F
:1002A0004446526F626F7420424D503238302049BC
:1002B000494320696E697469616C697A6174696F18
:1002C0006E206661696C6564004148543231206972
:1002D0006E697469616C697A6174696F6E206661B8
:1002E000696C65640031303A31323A3036004A7513
:1002F0006C203231203230323500525443206C6F42
:10030000737420706F7765722C2073657474696ED6
:10031000672074696D650052544320696E69746981
:10032000616C697A6174696F6E206661696C65647D
:1003300000446973706C6179206D616E61676572EC
:1003400020696E697469616C697A65640020696E00
:10035000697469616C697A6174696F6E206661693C
:100360006C656400446973706C6179200055736535
:100370007220696E70757420696E697469616C6948
:100380007A6564004D6F746F7220636F6E74726F64
:100390006C20696E697469616C697A656400417585
:1003A00064696F206D616E6167657220696E697442
:1003B00069616C697A65640044617461206C6F677F
:1003C00067657220696E697469616C697A65640039
:1003D0004C69676874696E672065666665637473E7
:1003E00020696E697469616C697A6564004D696E33
:1003F0007574652068616E642063616C6962726106
:100400007465640043616C6962726174696E67202F
:100410006D696E7574652068616E642E2E2E0050B5
:10042000656E64756C756D2063616C696272617470
:1004300065640043616C6962726174696E67207003
:10044000656E64756C756D2E2E2E00464154414CC0
:100450003A2053797374656D20696E697469616CB3
:10046000697A6174696F6E206661696C65640057B2
:1004700065617468657220436C6F636B20526561BF
:10048000647900416C6C206D6F64756C65732069D4
:100490006E697469616C697A6564207375636365FC
:1004A000737366756C6C79004552524F523A204412
:1004B0006973706C617920696E697469616C697ABD
:1004C0006174696F6E206661696C656400455252A3
:1004D0004F523A2053656E736F727320696E697460
:1004E00069616C697A6174696F6E206661696C65B7
:1004F00064005765617468657220436C6F636B209C
:100500005374617274696E672E2E2E005365747475
:10051000696E67206E6F7420696D706C656D656EB5
:100520007465640041646A757374696E67206368FA
:10053000696D65206672657175656E6379004164E9
:100540006A757374696E67206368696D6520696E8A
:10055000737472756D656E740041646A7573746945
:100560006E67206368696D65207479706500416409
:100570006A757374696E672064617465207365744D
:1005800074696E670041646A757374696E6720747C
:10059000696D652073657474696E67004469737072
:1005A0006C6179206D6F6465206368616E67656456
:1005B00020746F3A200045786974696E672073650E
:1005C0007474696E6773206D6F646500456E746541
:1005D00072696E672073657474696E6773206D6FDE
:1005E0006465005B4248313735305D20446576698B
:1005F0006365206973206E6F7420636F6E66696730
:100600007572656421000000000000000000000019
:1006100000000000000000000000000000000000DA
:1006200000000000000000000000000000000000CA
:1006300000000000000000000000000000000000BA
:1006400000000000000000000000000000000000AA
:10065000000000000000000000000000000000009A
:10066000000000000000000000000000000000008A
:1006700000000000000000000000004661696C6599
:100680006420746F207265616420414854323100E7
:100690005741524E494E473A2053656E736F722050
:1006A00072656164206661696C6564000100020026
:1006B000040008001000200040008000000100023B
:1006C000000400080010002000400080000000002E
:1006D000000000000000000000000000C912C0156A
:1006E000F912E3003005C812003A001700000600B6
:1006F0002002CE12ED12240C5D2300040024000918
:10070000C03FC0120008C0000040000C3F0C0600B3
:10071000DB008F00E6006920FD000700FF00EF000E
:100720000012000A0024C80000098310BB02F70071
:100730008F1239000F12F9007100BD00F600091286
:100740001E0070243800360536213F00F3003F209C
:10075000F320ED0001123E00300C3628002D00156C
:10076000090C390000210F00030C0800000158108B
:100770007820D8008E08580871008E047010001080
:100780000E0000363000D4105010DC0070018604DA
:100790005000882078001C0004201428C0280C2059
:1007A00048084909001289242005FF3F4461696C0B
:1007B000792064617461206C6F6767656400486FBD
:1007C00075726C792064617461206C6F6767656411
:1007D000001F1C1F1E1F1E1F1F1E1F1E7D213836BF
:1007E00011241FBECFEFCDBFDFE3DEBF22E3AEE0BB
:1007F000B8E201C01D92A330B207E1F718E2A0E011
:10080000B8E2E3EBF1E802C005900D92AE30B1071B
:10081000D9F713E0CFEED3E004C02197FE010E9488
:100820007C38CE3ED107C9F70E9420230C94B03FFC
:100830000C940000DC0115961C92159714961C92DE
:10084000149713961C9213971C9281E011968C9327
:10085000119711968C9111978C3070F4282F21509C
:10086000330BF901EF52F84FE491823009F4EF5F56
:10087000E11102C08F5FEACF81E012968C93089558
:10088000CF93DF93EC0189819A81DC01ED91FC919A
:100890000684F785E02D099581E08B8389819A8113
:1008A000DC01ED91FC910688F789E02D68810995BE
:1008B00089819A81DC01ED91FC91028CF38DE02D10
:1008C000099591E0811190E0892FDF91CF910895F2
:1008D0008F929F92AF92BF92CF92DF92EF92FF9250
:1008E000CF932091152B3091162B82179307E8F5A3
:1008F0004B01AA24BB24C82DC52ED62EE72EFF24DB
:10090000BC2DA42F20911B2B222361F0829E40013D
:100910001124C92D2C9D60011124BD2D249FF001AF
:100920001124AF2FE091212BE0901C2BF0901D2B78
:1009300030911E2BE31323C09C01220F331F820F23
:10094000931F8E0D9F1DE0911E2BE80FF92FF11DB7
:10095000C083E0911F2BE80FF92FF11DB083209188
:10096000202B820F911DFC01A083CF91FF90EF906F
:10097000DF90CF90BF90AF909F908F900895880F99
:10098000991F880F991F8E0D9F1D472F552766278A
:100990007727222349F030E0249F7001259FF00C37
:1009A000349FF00C11244F2DE80FF92FF11D4083D7
:1009B000CACF0F931F9390912F2B969F90011124D4
:1009C000979FA0011124452F50E070E060E0762F42
:1009D000652F542F4427632B989FC00111248A014F
:1009E0009B01092BC901B8011F910F910895CF9266
:1009F000DF92EF92FF921F93CF93DF939C012032FF
:100A000082E03807D4F5D901253B310514F0A4EB79
:100A1000B0E04091223128E830E0241B310947FD45
:100A20003395220F331F220F331F6901330FEE0856
:100A3000FF084091233128E532E0241B310947FDAE
:100A40003395220F331F220F331F032E000C440B4C
:100A5000550B2C193D094E095F09B7FF02C0B0E0E4
:100A6000A0E00E94823824EB30E040E050E00E9499
:100A70005D382C0D3D1D4E1D5F1D109121311C3028
:100A800008F04AC080912231C8E8D0E0C81BD109E3
:100A900087FDD395CC0FDD1FCC0FDD1F2C173D0735
:100AA00084F080912331C8E5D2E0C81BD10987FDCD
:100AB000D395CC0FDD1FCC0FDD1F2C173D070CF499
:100AC000E901609104287091052880910628909191
:100AD000072820E432E44FE050E00E943B3884E0F5
:100AE000369527958A95E1F725972C9FC0012D9F74
:100AF000900D3C9F900D11249C01369527953695BD
:100B00002795812F90E0FC01EE0FFF1FE80FF91FE2
:100B1000EA54F54D21833283DF91CF911F91FF90ED
:100B2000EF90DF90CF9008956F927F928F929F9277
:100B3000AF92BF92CF92DF92EF92FF920F931F93EB
:100B4000CF93DF937C013B016A0110E000E0D70105
:100B500014968D919C91E601C01BD10B8C179D07BB
:100B600008F4EC01F7018181928121E0A6014C1B80
:100B70005D0B0417150708F420E0DC01ED91FC91F2
:100B8000048CF58DE02DAE01D7016C9109958C1781
:100B90009D0771F54301800E911E5401C50188190E
:100BA00099098C179D0770F4F70181819281DC010E
:100BB000ED91FC910284F385E02D0995F501819377
:100BC0005F01ECCF0C0F1D1F0C151D0508F4BFCFE6
:100BD00081E0DF91CF911F910F91FF90EF90DF9017
:100BE000CF90BF90AF909F908F907F906F9008951F
:100BF00080E0EFCFFC0154894589252F30E0842F18
:100C000090E0821B930B541710F0CF960895019734
:100C10000895FC0192898389981761F0A389AE0F2A
:100C2000BF2FB11D59968C9193899F5F9F73938BB2
:100C300090E008958FEF9FEF0895FC0192898389DA
:100C4000981731F08389E80FF11D818D90E00895A8
:100C50008FEF9FEF0895FC0192892389892F90E0FF
:100C6000805C9F4F821B91098F7399270895CF93C2
:100C7000DF93EC01E881F9810680F781E02D099589
:100C8000EC85FD8586818F738683EC85FD85858166
:100C90008F7585838B898A8B198ADF91CF9108950F
:100CA000CF93DF93FC0194898589C485D5859813FA
:100CB00006C08D818F7D8D83DF91CF910895A589A9
:100CC000AE0FBF2FB11DA75ABF4F2C91858990E061
:100CD00001968F739927858B80E48C83A485B585D5
:100CE00012962C93948985899813E6CFA485B585AF
:100CF00015968C9115978F7D15968C9387898823EF
:100D0000D9F2808D80931301178AD6CFDC011C960F
:100D1000ED91FC910FB607FE03C0258125FD04C0AF
:100D2000248125FD0C9450060895EF92FF920F93B5
:100D30001F93CF93DF93EC0181E0898B9C898D8990
:100D400098131CC0AC85BD8514968C91149785FFB3
:100D500015C012966C93AC85BD8580E414968C9377
:100D6000EC85FD8585818F7D858381E090E0DF9135
:100D7000CF911F910F91FF90EF90089580911101F5
:100D800080FF08C080911301888F8E8980931301A2
:100D900081E08F8BF62E0C8910E00F5F1F4F0F73D1
:100DA0001127E02E8D898E1104C0CE010E94860687
:100DB000F9CFEC89EC0FFD2FF11DE75AFF4FF082C0
:100DC0000C8BEC85FD8585818062CECF0F931F93C0
:100DD000CF93DF938C01D0E0C0E0F801EC0FFD1F52
:100DE0006491662341F08BE19AE20E949506892B7B
:100DF00011F02196F2CFCE01DF91CF911F910F918B
:100E00000895CF93DF93FC0121892223C9F0EC01DF
:100E10008091110180FF08C080911301808F868925
:100E20008093130181E0878BEC85FD85858185FDAD
:100E300003C0848186FD04C0CE010E948606F4CFE3
:100E4000DF91CF910895CF93DF9390E0FC01E656B8
:100E5000FF4320812F3F71F0FC01EC54FF43A08140
:100E600030E2A39FD0011124BC5F6130710529F4E9
:100E700011962C93DF91CF91089587549044EC0103
:100E8000E881EF3F89F0CD014096E80FF92FF11D81
:100E90009FB7F89412962C9380816230710539F4D3
:100EA000886080839FBFE6CFF0E0E0E0F1CF877FEE
:100EB000F8CF8B3210F40C9423070895282F30E0DC
:100EC000F901E156F044E081EE2309F1E13021F02F
:100ED000F0F0E63098F008954091010A275430442C
:100EE000F90120812C5F81E090E001C0880F2A95F4
:100EF000EAF7809584238093010A089580E1E89FB2
:100F0000F0011124E05AF54F81818F7E818308958D
:100F1000FF920F931F93CF93DF93082F10E0F801F8
:100F2000E656FF43F0809FEFF916A1F0EB018B32FC
:100F300010F40E945E07F801EC54FF43E08180E268
:100F4000E89FF0011124FC5F80818F2179F02097C8
:100F500039F4F682DF91CF911F910F91FF900895A0
:100F6000229711F4F782F6CFF582F4CFD801A75477
:100F7000B0448C91309771F08F3F61F07096E80F1C
:100F8000F11D9FB7F8948081CD2B39F4877F808342
:100F90009FBFE0CFF0E0E0E0F4CF8860F8CF8B3285
:100FA00010F40C9488070895CF92DF92EF92FF928D
:100FB0000F931F93CF93DF93EC016A017B01022F04
:100FC0008989882339F0E881F9810288F389E02D45
:100FD000CE01099598898091E205892B8093E205DD
:100FE0001FB7F89460E070E281EA97E0A7019601EC
:100FF0000E943B3869017A018FEFC81AD80AE80AC3
:10100000F80AF694E794D794C794EC85FD85868119
:101010008D7F8683EC85FD8586818683198AA091E4
:1010200023110A2E000CBB0BA70196010E948238E7
:1010300020E034E040E050E00E945D38EC85FD8522
:10104000C20ED31EE41EF51EC086D186EC85FD853A
:101050000783EC85FD858681806C8683EC85FD8524
:101060008581806885838E8562E070E00E945907E3
:101070008F8561E070E00E94CF078F8561E070E0AE
:101080000E9459071FBFDF91CF911F910F91FF90D1
:10109000EF90DF90CF900895CF93DF938FB7F894C0
:1010A00020914D2930914E2940914F29509150293E
:1010B000E091BA0A9091B60A90FF06C02F5F3F4FA9
:1010C0004F4F5F4FE091BA0A8FBFA0914B29B0916B
:1010D0004C29C0914929D0914A290E94AC37EC9FF4
:1010E0009001ED9F300D1124620F731F811D911D22
:1010F000DF91CF9108950F931F93CF93DF93CDB7D7
:10110000DEB72997CDBFDEBF80911C2B90911D2BA0
:10111000892B09F47CC00E944C080091222B10916D
:10112000232B2091242B3091252B601771078207E8
:10113000930740F46093222B7093232B8093242BEE
:101140009093252B0091222B1091232B2091242B5F
:101150003091252B601B710B820B930B6C3271400D
:1011600081059105C0F2F8948091172B9091182B6E
:1011700089839A83E0911C2BF0911D2BDF0111963E
:10118000808189879091132BE091262BF091272B5A
:101190008091282B992309F442C09081982B98873D
:1011A0009081809589238F838F818C8388E08B83C6
:1011B00058856F8149853B812C8189819A81508333
:1011C00047FD252F3A952083262F39F0441F00C074
:1011D00000006083000000C0F2CF38E04D916083D2
:1011E0000000019761F7E093262BF093272B4987A6
:1011F0003B832C8389839A8378940E944C08609364
:10120000222B7093232B8093242B9093252B2996AC
:10121000CDBFDEBFDF91CF911F910F9108959081D7
:10122000982B98879081809589238F838F818E83D7
:1012300088E08D8358856F8149853D812E81898124
:101240009A81508347FD252F00C000C0208300C035
:1012500000C000C000C000C060830000262F3A9587
:1012600041F0441F000000C000C000C000C000C02A
:10127000E8CF38E04D9100C0608300C0019709F7C6
:10128000E093262BF093272B49873D832E83B2CF03
:101290008F929F92AF92BF92CF92DF92EF92FF9286
:1012A0004B015C010E944C086B017C01A8EEB3E08D
:1012B000A50194010E94AC37C60ED71EE81EF91E88
:1012C000C616D706E806F90618F40E944C08F8CFAF
:1012D0000E944C086C157D058E059F05C8F3FF9094
:1012E000EF90DF90CF90BF90AF909F908F90089538
:1012F0000F931F93CF93DF9320913131309132318F
:10130000882389F1C901019668E070E00E942738BE
:10131000809331319093323103E111E3D0E0C0E0AA
:10132000E0913131F0913231EE0FFF1FEE0FFF1FD0
:10133000EC0FFD1FEE0FFF1FED52F0446081718135
:10134000F80181918F010E94CF072196C430D10509
:1013500039F762E070E080E090E0DF91CF911F917B
:101360000F910C944809C9010796CECF2FB7F89476
:10137000609145297091462980914729909148298B
:101380002FBF0895AF92BF92CF92DF92EF92FF925C
:101390000F931F93CF93DF936C017B018B01040F9D
:1013A000151FEB015E01AE18BF08C017D10759F039
:1013B0006991D601ED91FC910190F081E02DC6017B
:1013C0000995892B79F7C501DF91CF911F910F9175
:1013D000FF90EF90DF90CF90BF90AF900895EF9285
:1013E000FF920F931F93CF93DF93C82FD0E0A09667
:1013F00095E0CC0FDD1F9A95E1F7E984F82EFF0CFC
:10140000FF0CFF0C01E010E08E2D8023A9F02F2DA2
:10141000210F30E0220F331FF901EF54F64D808188
:101420009181892B49F00190F081E02D2F5A364DA2
:10143000D9018D919C9109951F5F000F183021F7FC
:10144000E986DF91CF911F910F91FF90EF90089562
:1014500081E00895FC0110821182128213821482AD
:1014600015821682178210861186128613861486BC
:101470001586168617860895DC01ED91FC91019082
:10148000F081E02D0994DF92EF92FF920F931F936A
:10149000CF93DF93EC01D62E8A01790182E090E0B0
:1014A0008A839B838AA19BA1DC01ED91FC91068438
:1014B000F785E02D09958AA19BA1DC01ED91FC91B6
:1014C0000688F789E02D6CA109958AA19BA1DC0112
:1014D000ED91FC910190F081E02D6D2D0995D12CBD
:1014E0002D2D30E08AA19BA1DC01ED91FC912E1500
:1014F0003F0550F4200F311F0190F081E02DD901FC
:101500006C910995D394ECCF028CF38DE02D099565
:10151000811102C01A821B82DF91CF911F910F911E
:10152000FF90EF90DF900895AF92BF92CF92DF923D
:10153000EF92FF921F93CF93DF93EC01162F5A0186
:10154000690182E090E08A839B838AA19BA1DC01F0
:10155000ED91FC910684F785E02D09958AA19BA168
:10156000DC01ED91FC910688F789E02D6CA10995CD
:101570008AA19BA1DC01ED91FC910190F081E02D0D
:10158000612F09958AA19BA1DC01ED91FC91028C50
:10159000F38DE02D0995182F811121C08AA19BA1FF
:1015A000DC01ED91FC91068CF78DE02DA6016CA17C
:1015B0000995E12EF12CEC14FD0478F48AA19BA18D
:1015C000DC01ED91FC910284F385E02D0995F50194
:1015D000EE0DFF1D80831F5FECCF1A821B82DF910F
:1015E000CF911F91FF90EF90DF90CF90BF90AF9081
:1015F0000895FF920F931F93CF93DF931F92CDB760
:10160000DEB7082F162FF42E21E030E0AE014F5F39
:101610005F4F682F84EA91E30E94940A412F40951E
:10162000198141234F29498321E030E0AE014F5F0A
:101630005F4F602F84EA91E30E94430A0F90DF918D
:10164000CF911F910F91FF9008950895CF93DF934D
:101650001F92CDB7DEB741E050E0BE016F5F7F4F14
:10166000FC01848595850E949405882329F0898151
:101670000F90DF91CF9108958FEFFACF0895FC017D
:10168000908190539A3008F090E0818180532AE055
:10169000929F800D11240895FC01DB018C918083C1
:1016A00011968C911197818312968C911297828357
:1016B00013968C911397838314968C91149784833B
:1016C00015968C91858308950F9391E0909334291A
:1016D0001092332960933129709332294093302935
:1016E00020932F2910922E2910922D2900932C2916
:1016F000880F80932B2923E030E044E050E0809174
:101700003029882341F02093292930932A29809178
:101710002B298E7F0BC080912F29882351F0409375
:10172000292950932A2980912B2981608093A70829
:1017300008C080913029811104C080912F2988230D
:1017400011F3809133298823E1F380913329833089
:10175000B1F280912F29882321F080912D290F91BA
:10176000089580913329823031F0853031F0813015
:1017700031F480E0F4CF81E0F2CF83E0F0CF84E079
:10178000EECFE0EAF8E091859066918722E030E0C4
:101790002093292930932A2980931B2910921A29F2
:1017A000089581E080931A2910921B2993E0909369
:1017B000AA089091AB0891FF10C010922729E091E0
:1017C0001829F091192909958093262985E090E040
:1017D0008093292990932A2908951092282980938B
:1017E000252986E090E0F4CF8F929F92AF92BF922E
:1017F000CF92DF92EF92FF92CF93DF9360342DE090
:10180000720723E08207910508F454C0611525E3AF
:1018100072072CE08207910508F445C060387F44C8
:101820008241910508F046C0C8E7D0E020E432E4E8
:101830004FE050E08090042890900528A090062862
:10184000B0900728C501B4010E943B3869017A01B4
:101850008AE0C81AD108E108F108C501B40120E402
:1018600032E44FE050E00E943B38DE010E94AC378A
:1018700028EE33E040E050E00E943B38C21AD30A21
:10188000E40AF50AF694E794D794C794C092A608A0
:10189000DF91CF91FF90EF90DF90CF90BF90AF900E
:1018A0009F908F900895CCE2D1E020E83AE146E0A5
:1018B00050E0C0CFC8EED3E020EA36E841E050E087
:1018C000B9CF60931629709317290895609314294E
:1018D000709315290895E0911629F09117293097F2
:1018E00041F0109213291092122909958091122922
:1018F000089580E00895E0911429F091152930971A
:1019000059F03091112920911029321728F01092A6
:10191000112980931029099408950895E0911129BF
:1019200080911029E81730F4F0E0E057F74D8081FE
:1019300090E008958FEF9FEF089590911129809185
:1019400010292FEF3FEF981748F4E92FF0E0E05708
:10195000F74D208130E09F5F90931129C9010895D0
:101960008091102990911129891B990B0895CF928C
:10197000DF92EF92FF920F931F93CF93DF937C013F
:101980008A01EB016B01C40ED51ECC15DD0551F0AB
:101990006991D701ED91FC910190F081E02DC70193
:1019A0000995F3CFC801DF91CF911F910F91FF905F
:1019B000EF90DF90CF9008952091122927FF08C063
:1019C00021E030E0FC012283338390E080E0089541
:1019D00080911329E82FF0E0E05FF74D60838F5F7F
:1019E000809313298093122981E090E00895DC010F
:1019F000ED91FC91008CF18DE02D61E009940F9345
:101A00008091292990912A290197A1F48091342964
:101A1000811112C0062F20E04091122960E178E286
:101A200080910F280E94640B1092132910921229A2
:101A30000F91089580E0F8CF81E0F6CF60930F28F2
:101A400010921329109212290895DC01ED91FC9156
:101A5000048CF58DE02D21E009940F9380E998E244
:101A600080931C2990931D298091292990912A29DE
:101A70000197C9F480913429811117C0FA014138C6
:101A8000510510F0E0E8F0E0022F862F2E2F40E005
:101A900070E060E00E94640B10921129809310297D
:101AA00090E00F91089580E0F7CF81E0F5CFCB0172
:101AB000BA010C94F40BE0EAF8E01382168281E09C
:101AC0008583148611861092292910922A29089557
:101AD0001092112910921029109213291092122994
:101AE0008091292990912A29892BD9F482E090E0CC
:101AF0008093292990932A29109228291092272926
:101B000010921A2910921B2910920E281092252942
:101B1000660F6093AC0881EE8093A90881E0809302
:101B2000A3088BE69CE0809318299093192980E103
:101B300098E280931E2990931F298BE79CE0809365
:101B400023299093242980E998E280932029909377
:101B5000212980E88093222908951092112910925A
:101B600010291092132910921229809129299091FD
:101B70002A29892B41F562E070E086E10E94230763
:101B800062E070E087E10E9423078091E305809383
:101B9000E30581E090E08093292990932A2910920F
:101BA0002D2910922E29109234291092332981EC7C
:101BB0008093A30860EA76E881E090E00E94F40B4D
:101BC00081E08093A508089590E080E00895DC010D
:101BD000ED91FC910088F189E02D23E030E009943B
:101BE000DC01ED91FD918081ED91FD919081ED9170
:101BF000FD916C9163708E2309F064609F2309F05E
:101C00006860EDE0FEE0E60FF11D659565956D936A
:101C10006D917D918D919D91099423C01AC012C040
:101C200016C010C01EC009C014C013C006C019C021
:101C300009C00DC007C00DC014C062507040804084
:101C400090400BC0615070408040904006C06E5F75
:101C500001C06F5F7F4F8F4F9F4F9E938E937E93F8
:101C60006E9308958091DB2A9091DC2A0C94F00DFC
:101C70008091DD2A9091DE2A0C94F00D8091DF2A6C
:101C80009091E02A0C94F00D8091E12A9091E22A43
:101C90000C94F00D8091E32A9091E42A0C94F00DBD
:101CA0008091E52A9091E62A0C94F00D8091E72A24
:101CB0009091E82A0C94F00D8091E92A9091EA2AFB
:101CC0000C94F00D8091EB2A9091EC2A0C94F00D7D
:101CD0008091ED2A9091EE2A0C94F00D8091EF2ADC
:101CE0009091F02A0C94F00D8091F12A9091F22AB3
:101CF0000C94F00D8091F32A9091F42A0C94F00D3D
:101D00008091F52A9091F62A0C94F00D8091F72A93
:101D10009091F82A0C94F00D8091F92A9091FA2A6A
:101D20000C94F00D8091FB2A9091FC2A0C94F00DFC
:101D30008091FD2A9091FE2A0C94F00D8091FF2A4B
:101D40009091002B0C94F00D8091012B9091022B1F
:101D50000C94F00D8091032B9091042B0C94F00DBA
:101D60008091052B9091062B0C94F00D0F931F93EF
:101D7000CF93DF93EC018B010E944C0BF80186811D
:101D80009781A085B1858E839F83A887B987828537
:101D90009385A485B5858A879B87AC87BD87868513
:101DA0009785A089B1898E879F87A88BB98B8289F7
:101DB0009389A489B5898A8B9B8BAC8BBD8B8689D3
:101DC0009789A08DB18D8E8B9F8BA88FB98F828DB7
:101DD000938DA48DB58D8A8F9B8FAC8FBD8F85E041
:101DE0007E96DE015E9601900D928A95E1F7F801EC
:101DF00083A18BA3DF91CF911F910F9108950C9434
:101E00001A042AEFAC01249FC001259F900D1124D4
:101E1000BC0190E080E00C9448091F93CF93DF93BE
:101E20008091112A9091122A8130910539F090F118
:101E3000029769F1DF91CF911F910895C8E4D0EC2A
:101E40008091162A8111F6CF81E08093162A0E9494
:101E5000B6096093172A7093182A8093192A9093D1
:101E60001A2A14E08091162A811104C0898190E019
:101E70000E94010F64E670E080E090E00E94480953
:101E8000115022961111EECF1092162AD3CFC0E432
:101E9000D0ECD6CFC0E5D0ECD3CFAF92BF92CF92EB
:101EA000DF92FF920F931F93CF93DF93FC01C481C6
:101EB000D0E08091152A843008F45AC0CE016FE03A
:101EC00070E00E942738892B51F0CE016EE170E05E
:101ED0000E942738892B19F0209709F04EC01381F2
:101EE000C12ED12C8091022890910328C817D907C0
:101EF00039F48091002890910128C816D906E9F19B
:101F0000209709F044C00E940D0F64EF71E080E05B
:101F100090E00E944809812F6CE00E940738F92E5A
:101F2000911102C08CE0F82E10E000E08F2D81505E
:101F3000990B5C018091162A811104C082E090E027
:101F40000E94010F0A151B0534F464EF71E080E074
:101F500090E00E9448090F5F1F4F0F1558F3C09380
:101F60000228D0930328C0920028D092012805C0EF
:101F7000823008F0AACF8111AFCFDF91CF911F91AE
:101F80000F91FF90DF90CF90BF90AF9008950E9487
:101F90000D0FE5CF4F925F926F927F928F929F923B
:101FA000AF92BF92CF92DF92EF92FF920F931F9367
:101FB000CF93DF93CDB7DEB7C854D109CDBFDEBF15
:101FC0007C018091502F90E0479628E1C22ED12CC1
:101FD000B6010E94273832E2B32EB89E8001B99E26
:101FE000100D11240E5C144DB801CE0183960E9491
:101FF0004C0BF80186819781A085B18589A79AA7A6
:10200000ABA7BCA782859385A485B5858DA79EA720
:10201000AFA7B8AB86859785A089B18989AB9AAB04
:10202000ABABBCAB82899389A489B5898DAB9EABE0
:10203000AFABB8AF86899789A08DB18D89AF9AAFC4
:10204000ABAFBCAF828D938DA48DB58D21968CAF37
:102050009DAFAEAFBFAF2197868D978DA0A1B1A1E7
:1020600025968CAF9DAFAEAFBFAF25978091502F17
:1020700090E04496B6010E942738B89E8001B99E30
:10208000100D11240E5C144DB801CE0101960E9472
:102090004C0BD8011A968D919D910D90BC91A02D5D
:1020A00029968CAF9DAFAEAFBFAF2997F80146849C
:1020B000578460887188268137814085518569A55C
:1020C0007AA58BA59CA50E94D63920E030E040E49B
:1020D00050E40E94433A4B015C01D7018D929D92DE
:1020E000AD92BC921397A301920169A97AA98BA919
:1020F0009CA90E94D63920E030E040E450E40E94E0
:10210000433A2B013C01F701448255826682778273
:1021100029962CAD3DAD4EAD5FAD29976DA57EA541
:102120008FA598A90E94D63920E030E040E450E421
:102130000E94433AD70118966D937D938D939C939B
:102140001B9711E020E030E040E85FE3C301B201FB
:102150000E94EB3A18160CF010E0F701148720E00B
:1021600030E040E85FEBC301B2010E946C36881F8B
:102170008827881FD7011D968C93C501B4010E9442
:10218000B53A9B0177FF04C022273327261B370B64
:10219000B901330F880B990B0E94733611E020E0D0
:1021A00030E040E050E40E94EB3A18160CF010E0EA
:1021B000F7011687C701C85BDF4FCDBFDEBFDF91D8
:1021C000CF911F910F91FF90EF90DF90CF90BF9034
:1021D000AF909F908F907F906F905F904F900895F9
:1021E000DF92EF92FF920F931F93CF93DF93DC0167
:1021F0001496ED91FC91E417F50710F490E029C0D6
:10220000D22E8A017B01EC0189819A81DC01ED915A
:10221000FC910688F789E02D6881099589819A816A
:10222000DC01ED91FC910280F381E02DA801B70162
:1022300009950817190711F789819A81DC01ED9139
:10224000FC91008CF18DE02D6D2D099591E08111AF
:10225000D5CF892FDF91CF911F910F91FF90EF90F4
:10226000DF9008950F931F93CF93DF9300D0CDB7E6
:10227000DEB78FE08A8300E911E321E041E050E01E
:10228000BE016E5F7F4FF801808191810E94F01046
:1022900041E050E0BE016F5F7F4FF8018081918186
:1022A0000E94940589810F900F90DF91CF911F912B
:1022B0000F910895CF93DF93CDB7DEB76197CDBF70
:1022C000DEBF1982DC01FE0131969C01205F3F4F89
:1022D000BF015C9111964C911197129651834283E4
:1022E0003296A217B307A9F721E041E150E0FC01C3
:1022F000808991890E94F0106196CDBFDEBFDF9189
:10230000CF9108950F931F93CF93DF938B0192E1A9
:10231000899FE0011124C15BDE4CCE010E942A0A94
:10232000D80190E080E0ED91EE2391F0F0E0EE0F27
:10233000FF1FE455F94F25913491FC01EE0FFF1F6B
:10234000EC0FFD1F2083318301968430910559F7EE
:10235000CE01DF91CF911F910F910C945A11CF9321
:10236000DF931F92CDB7DEB7606E698321E041E055
:1023700050E0BE016F5F7F4FFC01808991890E9410
:10238000F0100F90DF91CF9108958F929F92AF92AE
:10239000BF920F931F93CF93DF93CDB7DEB7A19773
:1023A000CDBFDEBF19A2423008F44AE08E010F5DB6
:1023B0001F4F842E912CB12CA12CA50194010E94B9
:1023C0003B38E62FB901CA01EA302CF5E05DD801AF
:1023D000EE938D01232B242B252B79F790E080E0C1
:1023E000109769F0FD0101900020E9F73197AF01E6
:1023F0004A1B5B0BBD018BE19AE20E94C209A196C8
:10240000CDBFDEBFDF91CF911F910F91BF90AF90F5
:102410009F908F900895E95CDACFCF92DF92EF9290
:10242000FF92CF93DF936B017C016DE28BE19AE227
:102430000E949506EC0166277727CB016C197D0970
:102440008E099F094AE00E94C5118C0F9D1FDF91E4
:10245000CF91FF90EF90DF90CF90089542E050E051
:1024600066ED70EC8BE19AE20C94C209CF93DF9396
:102470000E94E606EC010E942E128C0F9D1FDF9138
:10248000CF9108952F923F924F925F926F927F92D9
:102490008F929F92AF92BF92CF92DF92EF92FF9274
:1024A0000F931F93CF93DF93CDB7DEB7C854D109F5
:1024B000CDBFDEBF8C010E94B60927966CAF7DAF01
:1024C0008EAF9FAF27978091023190E024E2289F42
:1024D000D001299FB00D1124AE5AB04DF8010190E2
:1024E0000D922A95E1F701966CE070E00E94273882
:1024F00080930231B801CE0183960E944C0B9EA1BD
:1025000080910A31981709F469C1809102318823BA
:1025100009F45BC1CE0101960E94FF0E86E0E2E560
:10252000FFE2DE01119601900D928A95E1F780910C
:102530000231282F30E029962EAF3FAF29970CE5C6
:102540001FE219A61AA61EAE1FAE21961FAE219736
:1025500022961FAE22971AAE3CE33BAF4CE14CAF44
:1025600086E48DAF1EAA90EC9FABA9E7A8AFB4ECB0
:10257000B9AF1AAAE0ECEBABF9E7FCAB24E42DAB66
:102580001EA61FA618AA19AA812C912C5401240159
:10259000350169A529968EAD9FAD2997A9A5BAA544
:1025A000A817B9070CF08CC01C9709F49FC2F8015A
:1025B000E484F584F685FBA7D8011F96BC91BDA7DE
:1025C00097014F2F5B2FC301B2010E94D7392B0116
:1025D0003C01F8012081318142815381C501B40160
:1025E0000E94D7394B015C01D8011496DC901497F6
:1025F0001596CC90159716963C90169717962C909A
:102600002D2D3C2D432D522D6EA57FA588A999A96E
:102610000E94D7396EA77FA788AB99AB2AA93BA99F
:102620004CA95DA9B7018BA59DA50E946C3687FFBB
:1026300006C0EAAAFBAABBA5BCABEDA5EDAB2EA9D3
:102640003FA948AD59ADB7018BA59DA50E94EB3AB6
:10265000181634F4EEAAFFAAFBA5F8AF2DA529AFF2
:102660002AAD3BAD4CAD5DAD6D2D7C2D832D922DF6
:102670000E946C3687FF04C0DAAECBAE3CAE2DAE06
:102680002EAD3FAD21964FAD219722965FAD22979B
:102690006D2D7C2D832D922D0E94EB3A181644F45B
:1026A000DEAECFAE21963FAE219722962FAE229777
:1026B00089A59AA5019689A79AA70C5D1F4F69CF96
:1026C000662309F480C070E090E080E00E947336D9
:1026D0006B017C01AC019B01C301B2010E94433A32
:1026E0006F83788789879A87A7019601C501B4010E
:1026F0000E94433A6B877C878D879E87A70196014E
:102700006EA57FA588A999A90E94433A6F87788B07
:10271000898B9A8B8AA99BA9ACA9BDA98B8B9C8B11
:10272000AD8BBE8B8EA99FA9A8ADB9AD8F8B988FAD
:10273000A98FBA8F8AAD9BADACADBDAD8B8F9C8F91
:10274000AD8FBE8F8EAD9FAD2196AFAD21972296F6
:10275000BFAD22978F8F98A3A9A3BAA38091502FC2
:1027600090E022E2289FD001299FB00D1124AE5C99
:10277000B44DFE01319601900D922A95E1F7019634
:1027800068E170E00E942738182F8093502F90E066
:1027900080E00E949037181729F0612F90E080E0C8
:1027A0000E9498371091512F81E090E00E9490375D
:1027B000181729F0612F81E090E00E9498378EEB86
:1027C00097E00E9436121092023186E0FE01B39625
:1027D000A7E0B1E301900D928A95E1F79DA1809168
:1027E0000F31981709F45DC1CE0101960E94FF0ECA
:1027F00086E0EDE0F1E3DE01119601900D928A95FD
:10280000E1F78091502FA7E1B0E0A9A7BAA71CAECD
:102810001DAE1EAE1FAE18AEBCE3B9AFECE1EAAF21
:10282000F6E4FBAF1CAA20EC2DAB39E73EAB44EC41
:102830004FAB1DA690EC9EA7A9E7AAABB4E4BBAB37
:10284000C12CD12C76014601570126013701E82F12
:10285000F0E02396EEAFFFAF239723968EAD9FADAA
:10286000239729A53AA5820F931F68E170E00E9483
:1028700027388BA79CA7E2E2DC01EA9FC001EB9F0F
:10288000900D11249C012E5C344D1901D90116962E
:102890002D913D914D915C911997C301B2010E9418
:1028A000D7392B013C01F1012285338544855585BB
:1028B000C501B4010E94D7394B015C01D1011E96BC
:1028C0002D913D914D915C915197C701B6010E94A8
:1028D000D7396B017C01F101F2892196FFAF219775
:1028E000D10153960C91539754961C915497559639
:1028F0002C902DA53EA54AA95BA96F2F702F812F83
:10290000922D0E946C3687FF07C02196BFAD21979C
:10291000BDA70EA71AAB2BAA42E22BA53CA5429F4E
:10292000F001439FF00D1124EE5CF44D26883788AA
:10293000008D118D2CA93DA94EA95FA9B101C80137
:102940000E94EB3A181624F42CAA3DAA0EAB1FAB3A
:10295000A2E28BA59CA5A89FF001A99FF00D1124D0
:10296000EE5CF44D228C338C048D158D28AD39AD81
:102970004AAD5BADB101C8010E946C3687FF04C04F
:1029800028AE39AE0AAF1BAF42E22BA53CA5429F51
:10299000F001439FF00D1124EE5CF44D268C378C32
:1029A00000A111A12CAD3DAD4EAD5FADB101C8018F
:1029B0000E94EB3A181624F42CAE3DAE0EAF1FAFBA
:1029C00089A59AA5019789A79AA7019609F045CFED
:1029D00020E030E040EC51E4C301B2010E94433AF0
:1029E0006F83788789879A8720E030E040EC51E454
:1029F000C501B4010E94433A6B877C878D879E870F
:102A000020E030E040EC51E4C701B6010E94433AB7
:102A10006F87788B898B9A8B8DA59EA5AAA9BBA958
:102A20008B8B9C8BAD8BBE8B8CA99DA9AEA9BFA9AE
:102A30008F8B988FA98FBA8F88AD99ADAAADBBAD9A
:102A40008B8F9C8FAD8FBE8F8CAD9DADAEADBFAD6E
:102A50008F8F98A3A9A3BAA38091512F90E022E26F
:102A6000289FD001299FB00D1124AE59B14DFE0110
:102A7000319601900D922A95E1F7019667E070E09A
:102A80000E9427388093512F8CEA97E00E943612DB
:102A900086E0FE01B396ADE0B1E301900D928A9518
:102AA000E1F727968CAD9DADAEADBFAD2797809376
:102AB000033190930431A0930531B0930631C85B84
:102AC000DF4FCDBFDEBFDF91CF911F910F91FF9000
:102AD000EF90DF90CF90BF90AF909F908F907F90BE
:102AE0006F905F904F903F902F9008956CE0EBCDEA
:102AF000CF93DF93EB010E9490378883CE01DF9163
:102B0000CF910895CF92DF92EF92FF920F931F9390
:102B1000CF93DF93CDB7DEB7E497CDBFDEBFBC0167
:102B2000E0918931F0918A31E730F10508F094C0E5
:102B3000E456FA4E0C947C38A315F21542168B1607
:102B4000691776177E17CE0185960E944C0BBE0141
:102B50006B5D7F4FCE0101960E944C0B8C8190E003
:102B60000097E9F18D3091050CF00C972D811F92A3
:102B70002F939F938F9389ED90EC9F938F937E017A
:102B800020E3E20EF11CFF92EF920E940F3DBE0186
:102B90006B5D7F4FCE0101960E944C0B8B811F9283
:102BA0008F938A811F928F9381EE90EC9F938F93E6
:102BB0008E01055D1F4F1F930F930E940F3DB701BC
:102BC00080E00E948211B80181E00E9482116AEEC9
:102BD00070EC82E00E948211CDBFDEBF3DC08CE070
:102BE00090E0C4CFCE0101960E94B60E8A8D8F93DD
:102BF000898D8F93888D8F938F898F938FEE90EC33
:102C00009F938F938E01055D1F4F1F930F930E941B
:102C10000F3DB80180E00E9482116B8D7C8D8D8DFF
:102C20009E8D0E94B53A7F936F9385EF90EC9F93B2
:102C30008F93065011091F930F930E940F3DB80107
:102C400081E00E9482118CA1CDBFDEBFBE01615E1A
:102C50007F4F833008F4A9C00E94B6096093853184
:102C6000709386318093873190938831E496CDBFFD
:102C7000DEBFDF91CF911F910F91FF90EF90DF901A
:102C8000CF900895CE0101960E94B60E6F89788D7F
:102C9000898D9A8D0E94B53A7F936F9385EF90EC62
:102CA0009F938F936E0130E3C30ED11CDF92CF92BE
:102CB0000E940F3D6B857C858D859E850E94B53A6F
:102CC0007F936F9389EF90EC9F938F937E014BE2FC
:102CD000E40EF11CFF92EF920E940F3D8A898F93C0
:102CE00089898F9388898F938F858F938FEF90EC4D
:102CF0009F938F938E010B5D1F4F1F930F930E9425
:102D00000F3DB60180E00E948211B70181E00E9470
:102D10008211B8015ECFCE0101960E94B60E0E94CC
:102D2000B60900918C3110918D3120918E31309106
:102D30008F316B017C01C01AD10AE20AF30A9701B4
:102D40008601093B1B402105310580F060938C31E1
:102D500070938D3180938E3190938F3180918B3130
:102D600090E001968370992780938B3180918B310D
:102D70008E01005D1F4F9E01255D3F4F790181301F
:102D800009F44FC0A8F0823009F473C0833009F40D
:102D900088C0B80180E00E948211B70181E00E94E2
:102DA0008211BE016B5D7F4F82E00E94821154CF81
:102DB000BE016F5F7F4FCE0185960E944C0B88A5A8
:102DC00090E0009759F18D3091050CF00C9729A5F2
:102DD0001F922F939F938F9389ED90EC9F938F93E6
:102DE0001F930F930E940F3D6F89788D898D9A8D67
:102DF0000E94B53A7F936F9385EF90EC9F938F93EA
:102E0000FF92EF920E940F3DBE01615E7F4FCE01A7
:102E100085960E94F93CCDBFDEBFBBCF8CE090E031
:102E2000D6CFBE016F5F7F4FCE0185960E944C0BBF
:102E30008FA11F928F938EA11F928F9381EE90ECA2
:102E40009F938F931F930F930E940F3D6B857C85FB
:102E50008D859E850E94B53A7F936F9389EF90ECA4
:102E60009F938F93FF92EF920E940F3D65E071EC6C
:102E7000CECF8A898F9389898F9388898F938F8505
:102E80008F938FEF90EC9F938F931F930F930E94DC
:102E90000F3D6AE071ECC7010E94F93C6FE071ECF4
:102EA000B6CF8E898F938D898F938C898F938B89E1
:102EB0008F938FEF90EC9F938F931F930F930E94AC
:102EC0000F3D64E171ECC7010E94F93C69E171ECCE
:102ED0009ECF6EE171EC80E00E94821163E271ECA2
:102EE00081E00E9482116AE271EC5ECF6FE271ECC8
:102EF00080E00E94821164E371ECF2CF69E371EC2F
:102F000080E00E9482116EE371EC81E00E948211E8
:102F100063E471EC49CFE3E1FBE24481558170E069
:102F200060E0818592850C94F23CCF92DF92EF9223
:102F30001F93CF93DF936B01E82E13E0D0E0C0E046
:102F40008091152B9091162BC817D90758F48E2D08
:102F5000B6010E94D904AB01BC01CE010E946804F5
:102F60002196EECF0E947B0868EC70E080E090E054
:102F70000E9448090E948B170E947B0868EC70E051
:102F800080E090E00E9448091150C1F6DF91CF9196
:102F90001F91EF90DF90CF9008954F925F926F92C4
:102FA0007F92AF92BF92CF92DF92EF92FF920F93F8
:102FB0001F93CF93DF93CDB7DEB72997CDBFDEBF89
:102FC0008C017B016A010E94B6092B013C018091B2
:102FD0007ABF90917BBFA0917CBF8F839887A98790
:102FE00021E043E050E0BE01695F7F4FD8011C96AD
:102FF0008D919C910E94F010811114C0B12C8B2DE9
:103000002996CDBFDEBFDF91CF911F910F91FF9029
:10301000EF90DF90CF90BF90AF907F906F905F90D8
:103020004F900895C8010E94260B87FF07C06AE0F1
:1030300070E080E090E00E944809F4CF46E050E064
:10304000BE016F5F7F4FF801848595850E949405CE
:10305000B82E882399F26A817B81762767277627A5
:10306000CB01B0E0A0E09C01AD0184E0220F331F52
:10307000441F551F8A95D1F7AC808A2D90E064E0FB
:10308000959587956A95E1F7092E000CAA0BBB0B65
:10309000BC01CD01622B732B842B952B0E947136C2
:1030A00020E030E048EC52E40E94D23620E030E0EC
:1030B00040E855E30E94D236D80114966D937D9373
:1030C0008D939C9317976A2D6F7070E090E080E06D
:1030D000982F872F762F66272D81622B982F872F89
:1030E000762F66272E81622B0E94713620E030E019
:1030F00048E453E40E94D23620E030E040E855E353
:103100000E94D23620E030E048E452E40E94D639F2
:10311000F8016083718382839383C114D10481F1A8
:10312000F601349680E2DF011D928A95E9F784E288
:1031300090E0A0E0B0E0F60180839183A283B383A6
:10314000D8011A968D919C91B0E0A0E0848395837C
:10315000A683B7838DE090E0A0E0B0E08087918700
:10316000A287B387408A518A628A738AF801808174
:103170009181A281B381F601848B958BA68BB78B4D
:10318000E114F10409F43BCFF701349680E2DF014A
:103190001D928A95E9F784E290E0A0E0B0E0F701A3
:1031A00080839183A283B383D80118968D919C91DB
:1031B000B0E0A0E084839583A683B7838DE090E0A0
:1031C000A0E0B0E080879187A287B387408A518AC8
:1031D000628A738AF80184819581A681B781F7019B
:1031E000848B958BA68BB78B0ACFAB0170E060E028
:1031F000FC01848195810E94CD1781E0089550E003
:1032000040E0FC01848195810E94CD1781E0089502
:103210002F923F924F925F926F927F928F929F92E6
:10322000AF92BF92CF92DF92EF92FF920F931F93D4
:10323000CF93DF93CDB7DEB7C054D109CDBFDEBF8A
:103240007C010E94B6096DA37EA38FA398A78091ED
:103250002B2B90912C2BA0912D2BB0912E2BADA030
:10326000BEA0CFA0D8A4A81AB90ACA0ADB0AD60100
:10327000C5018197A105B10530F18091292B90916D
:103280002A2B8330910509F414C2A0F5009709F4A4
:1032900074C0029709F474C00E947B08ADA0BEA060
:1032A000CFA0D8A4A0922B2BB0922C2BC0922D2B68
:1032B000D0922E2B8091302B9091312B01968093C0
:1032C000302B9093312BC05CDF4FCDBFDEBFDF9141
:1032D000CF911F910F91FF90EF90DF90CF90BF9013
:1032E000AF909F908F907F906F905F904F903F90A6
:1032F0002F9008958530910509F4E4C208F494C232
:10330000069751F6B701CE0101960E944C0B0E9420
:103310008B172091152B3091162B8C816CE00E941D
:103320000738492F429FC001439F900D11246CE044
:1033300070E00E9413387B014D81429FC001439F82
:10334000900D11246CE370E00E9413386B0140E093
:1033500050E06FEF70E0C7010E9468044FEF50E04B
:1033600060E070E0C601EC14FD0421F44FEF50E082
:10337000BA01C7010E9468048FCF0E948B178CCFBF
:1033800020E030E048EC52E4D70156966D917D91F3
:103390008D919C9159970E94433A6B017C0120E0EA
:1033A00030E0A9010E946C3687FD78C120E030E052
:1033B00040E85FE3C701B6010E94EB3A18160CF42F
:1033C00071C120E030E040E151E4C701B6010E9444
:1033D000D2366B017C010E94B53A4B01072E000CDE
:1033E000880B990B0E9473369B01AC01C701B60193
:1033F0000E94D6392B013C016401CC0CDD1CC80CA9
:10340000D91CF601EE5DFF431F01FFEF8F1A9F0AE3
:103410000AE0801691041CF039E0832E912C74018F
:10342000EE0CFF1C8E0C9F1C94012E5D3F43490146
:10343000D101AC90B12CF901608170E06A197B096F
:10344000072E000C880B990B0E947336A301920182
:103450000E94D2366B017C01B501BB0C880B990B25
:103460000E9473369B01AC01C701B6010E94D73997
:103470000E94BC3A162FD1011196AC90B12CF401E8
:10348000618170E06A197B09072E000C880B990B8B
:103490000E947336A30192010E94D2366B017C0117
:1034A000B501BB0C880B990B0E9473369B01AC01D4
:1034B000C701B6010E94D7390E94BC3AB62ED1018D
:1034C0001296CC90D12CF401628170E06C197D09C8
:1034D000072E000C880B990B0E947336A3019201F2
:1034E0000E94D2362B013C01B601DD0C880B990BF2
:1034F0000E9473369B01AC01C301B2010E94D7390F
:103500000E94BC3A412F50E01695212F30E0241B39
:10351000350BEB2DF0E0B6948B2D90E08E1B9F0BBE
:10352000A62FB0E0669570E06A1B7B0BF12CE12CB6
:103530005901330FCC08DD08A9A6BAA6CBA6DCA694
:103540005A01550FCC08DD08ADA6BEA6CFA6D8AA55
:103550005C01990FCC08DD08A9AABAAACBAADCAAFB
:103560005F01FF0FCC08DD08ADAABEAACFAAD8AE76
:103570005B01770FCC08DD08A9AEBAAECBAEDCAEEE
:103580005D01BB0FCC08DD082196ACAEBDAECEAE62
:10359000DFAE2197C090152BD090162BEC14FD04B4
:1035A00008F07ACEB7010F2C000C880B990B0E9403
:1035B00073364B015C01B60190E080E00E947136E9
:1035C0009B01AC01C501B4010E94433A2AE939E9E3
:1035D00049E95EE30E94D2362B013C0169A57AA538
:1035E0008BA59CA50E947336A30192010E94D2363E
:1035F0004B015C016DA57EA58FA598A90E9473362D
:103600009B01AC01C501B4010E94D7390E94BC3AAC
:10361000D62E69A97AA98BA99CA90E947336A30109
:1036200092010E94D2364B015C016DA97EA98FA93F
:1036300098AD0E9473369B01AC01C501B4010E9494
:10364000D7390E94BC3A162F69AD7AAD8BAD9CADCF
:103650000E947336A30192010E94D2362B013C01D5
:1036600021966CAD7DAD8EAD9FAD21970E947336D6
:103670009B01AC01C301B2010E94D7390E94BC3A40
:10368000862F6D2D712F0E94D904AB01BC01C7019B
:103690000E9468040FEFE01AF00A7CCFC12CD12CF5
:1036A00076018FCEC12CD12C50E8E52E5FE3F52EAC
:1036B00088CEB701CE0101960E94B60ECF84D8887D
:1036C000E988FA8820E030E04FE754E4C701B6010A
:1036D0000E94EB3A109113C0B09014C0A09015C096
:1036E0001816B4F120E030E84CE754E4C701B60105
:1036F0000E94EB3A109116C0B09017C0A09018C06D
:10370000181634F120E030E04AE754E4C701B6016E
:103710000E94EB3A109119C0B0901AC0A0901BC043
:103720001816B4F020E030E847E754E4C701B601CA
:103730000E94EB3A10911CC0B0901DC0A0901EC01A
:10374000181634F010911FC0B09020C0A09021C076
:103750006091302B7091312B90E080E00E947136A7
:103760002DEC3CEC4CEC5DE30E94D2360E94F03A2A
:1037700020E030E040E85FE30E94D73920E030E00D
:1037800040E05FE30E94D2366B017C016B2D70E05C
:1037900090E080E00E947336A70196010E94D23625
:1037A00020E030E0A9010E94D7390E94BC3AB62E31
:1037B0006A2D70E090E080E00E947336A7019601C8
:1037C0000E94D23620E030E0A9010E94D7390E9441
:1037D000BC3AA62E612F70E090E080E00E94733624
:1037E000A70196010E94D23620E030E0A9010E9494
:1037F000D7390E94BC3A162FF12CE12C8091152B61
:103800009091162BE816F90608F046CD612F7B2D16
:103810008A2D0E94D904AB01BC01C7010E94680433
:103820002FEFE21AF20AEACFD12CC12CF12CE12CB5
:103830006091152B7091162BE616F70608F02CCD2B
:103840002091302B3091312B220F331FC6010E9463
:103850001338C901860F971F9C01232F3327229508
:103860002695277060E07FEF22303105D9F06CF4A7
:1038700021153105A1F0682F60957FEF21303105CA
:1038800081F06FEF70E080950DC023303105B1F00D
:10389000682F70E024303105A1F78FEF03C06FEF80
:1038A000782F80E00E94D904AB01BC01C7010E94BF
:1038B00068043FEFE31AF30AD394BACF60E0782F9D
:1038C0007095EBCF6091302B7091312B90E080E0C0
:1038D0000E9471362DEC3CEC4CE45DE30E94D23644
:1038E0000E94F03A20E030E040E85FE30E94D739E0
:1038F00020E030E040E05FE30E94D23620E030E09C
:103900004FE753E40E94D23620E030E0A9010E9444
:10391000D7390E94BC3A162FF12CE12C8091152B3F
:103920009091162BE816F90608F0B6CC612F712F8E
:10393000812F0E94D904AB01BC01C7010E94680419
:103940005FEFE51AF50AEACF0C94693C0C94693CE8
:103950000F931F93CF93DF938C01EB0188E2FB0160
:1039600011928A95E9F74BE050E068E471ECCE01E2
:103970000E94003D1B8681E090E0A0E0B0E08C87D3
:103980009D87AE87BF87F80182819381092E000C45
:10399000AA0BBB0B888B998BAA8BBB8B8DE090E01D
:1039A000A0E0B0E08C8B9D8BAE8BBF8B1CA21DA2C8
:1039B0001EA21FA280E090E0A0E2B2EC8C8F9D8F4F
:1039C000AE8FBF8F80E090E0AAEAB2E4888F998F33
:1039D000AA8FBB8F8AE999E9A9E9BEE388A399A3D5
:1039E000AAA3BBA3DF91CF911F910F9108950F93CD
:1039F0001F93CF93DF938C01EB0188E2FB011192BF
:103A00008A95E9F74BE050E060E571ECCE010E9449
:103A1000003D1B8681E090E0A0E0B0E08C879D87B0
:103A2000AE87BF87F80182819381092E000CAA0B13
:103A3000BB0B888B998BAA8BBB8B8CE090E0A0E0B2
:103A4000B0E08C8B9D8BAE8BBF8B1CA21DA21EA2E7
:103A50001FA21C8E1D8E1E8E1F8E80E090E0A8EC93
:103A6000B2E4888F998FAA8FBB8F80E090E0A0E0AE
:103A7000B0E488A399A3AAA3BBA3DF91CF911F9120
:103A80000F9108951F920F920FB60F9211242F934A
:103A90003F934F935F936F937F938F939F93AF93D6
:103AA000BF934091452950914629609147297091D3
:103AB00048298091432990914429209141293091AE
:103AC0004229420F531F611D711D20913F293091E2
:103AD0004029820F931F883E23E0920730F0885ED2
:103AE00093404F5F5F4F6F4F7F4F80934329909379
:103AF0004429409345295093462960934729709360
:103B0000482980914D2990914E29A0914F29B0913B
:103B100050290196A11DB11D80934D2990934E29E6
:103B2000A0934F29B093502981E08093B60ABF91AA
:103B3000AF919F918F917F916F915F914F913F9145
:103B40002F910F900FBE0F901F9018951F920F92FC
:103B50000FB60F9211242F933F934F935F936F9360
:103B60007F938F939F93AF93BF93EF93FF9385E0E2
:103B70000E94EF09FF91EF91BF91AF919F918F91BB
:103B80007F916F915F914F913F912F910F900FBE59
:103B90000F901F9018951F920F920FB60F9211243D
:103BA0002F933F934F935F936F937F938F939F9345
:103BB000AF93BF93EF93FF9384E00E94EF09FF91CF
:103BC000EF91BF91AF919F918F917F916F915F9195
:103BD0004F913F912F910F900FBE0F901F9018950E
:103BE0001F920F920FB60F9211242F933F934F9372
:103BF0005F936F937F938F939F93AF93BF93EF9355
:103C0000FF9383E00E94EF09FF91EF91BF91AF9185
:103C10009F918F917F916F915F914F913F912F91E4
:103C20000F900FBE0F901F9018951F920F920FB616
:103C30000F9211242F933F934F935F936F937F9332
:103C40008F939F93AF93BF93EF93FF9382E00E9474
:103C5000EF09FF91EF91BF91AF919F918F917F916C
:103C60006F915F914F913F912F910F900FBE0F90E9
:103C70001F9018951F920F920FB60F9211242F9339
:103C80003F934F935F936F937F938F939F93AF93E4
:103C9000BF93EF93FF9381E00E94EF09FF91EF91B3
:103CA000BF91AF919F918F917F916F915F914F9154
:103CB0003F912F910F900FBE0F901F9018951F925C
:103CC0000F920FB60F9211242F933F934F935F9350
:103CD0006F937F938F939F93AF93BF93EF93FF93D4
:103CE00080E00E94EF09FF91EF91BF91AF919F910A
:103CF0008F917F916F915F914F913F912F910F9095
:103D00000FBE0F901F9018951F920F920FB60F9233
:103D100011242F933F934F935F936F937F938F93D0
:103D20009F93AF93BF93EF93FF938BE19AE20E942F
:103D30005006FF91EF91BF91AF919F918F917F912D
:103D40006F915F914F913F912F910F900FBE0F9008
:103D50001F9018951F920F920FB60F9211242F9358
:103D60003F934F935F936F937F938F939F93AF9303
:103D7000BF93EF93FF93E091272AF091282A818146
:103D800081FD2FC0608180912D2A8F5F8F7390916C
:103D90002E2A891741F0E0912D2AF0E0E55EF54DDD
:103DA000618F80932D2A8091B42A9091B52A009733
:103DB00039F0DC01ED91FC910190F081E02D099545
:103DC000FF91EF91BF91AF919F918F917F916F91F3
:103DD0005F914F913F912F910F900FBE0F901F90C9
:103DE00018958081EDCF1F920F920FB60F9211247C
:103DF0000F931F932F933F934F935F936F937F93F3
:103E00008F939F93AF93BF93CF93DF93EF93FF93E2
:103E100080913529C091DA2AD0E087FF52C01092F4
:103E2000AC0A1092AD0A809135298F5F80933529B5
:103E300080913529082E000C990B8C179D072CF4C6
:103E4000809135298C300CF467C0C091AC0AD091B8
:103E5000AD0A609104287091052880910628909100
:103E6000072820E432E44FE050E00E943B3854E061
:103E7000369527955A95E1F740E85EE3249FC00107
:103E8000259F900D349F900D1124969587959695BA
:103E90008795AE0170E060E04C5F5F4F6F4F7F4FE2
:103EA0008C0130E020E0401751076207730708F0EB
:103EB0007EC08093AC0A9093AD0A8FEF8093352932
:103EC0005EC080913529082E000C990B8C179D0738
:103ED0000CF0A9CFE09135298E2FEE0F990BFC0144
:103EE000EE0FFF1FE80FF91FEA54F54D808186FFA2
:103EF0009ACFE09135298E2FEE0F990BFC01EE0F32
:103F0000FF1FE80FF91FEA54F54D808170E060E073
:103F10008F730E94CF0787CFE09135298E2FEE0F48
:103F2000990BFC01EE0FFF1FE80FF91FEA54F54D46
:103F3000808186FF12C0E09135298E2FEE0F990BFC
:103F4000FC01EE0FFF1FE80FF91FEA54F54D8081C9
:103F500061E070E08F730E94CF07E09135298E2FCA
:103F6000EE0F990BFC01EE0FFF1FE80FF91FEA544B
:103F7000F54D818192818093AC0A9093AD0A81E0E6
:103F80008093A60AFF91EF91DF91CF91BF91AF91FE
:103F90009F918F917F916F915F914F913F912F9161
:103FA0001F910F910F900FBE0F901F9018952496A0
:103FB000C093AC0AD093AD0A80CF1F920F920FB678
:103FC0000F9211242F933F934F935F936F937F939F
:103FD0008F939F93AF93BF93CF93EF93FF93C09132
:103FE000AB08C2FF0AC0109228291092272910920C
:103FF000262984E00E94C10B14C0C6FF2FC0809107
:104000002529813051F480912829E0912329F091CC
:10401000242990E0099510922529C0FF14C00E9420
:10402000D10BFF91EF91CF91BF91AF919F918F9164
:104030007F916F915F914F913F912F910F900FBEA4
:104040000F901F90189580E48093AB0881E00E9448
:10405000C10B8091AB0885FFE4CFE1CFC7FF5CC007
:10406000C3FF08C0109228291092272910922629F0
:1040700083E0C0CF8091A90880668093A9088091D1
:10408000AB0881FF2CC080912729882349F08091BB
:10409000AB0884FF05C082E08093AA0881E0AACF24
:1040A00090912729809126299817A8F4E091272933
:1040B00080911E2990911F29E80FF92FF11D808111
:1040C0008093AD08809127298F5F8093272983E013
:1040D0008093AA08A6CF82E08093AA088BCF909104
:1040E000282980912229981790F48091AD08E091B9
:1040F00028292091202930912129E20FF32FF11D49
:104100008083809128298F5F80932829E0CF86E0E3
:104110008093AA0882E06ECF85E06CCF1F920F9249
:104120000FB60F9211242F933F938F939F93EF938A
:10413000FF938091A508982F9C70E1F08091A508CD
:1041400094E082FF93E0909333298093A50881E067
:1041500090E08093292990932A2910923429FF9185
:10416000EF919F918F913F912F910F900FBE0F90E4
:104170001F90189586FF4EC02091302990912F29CD
:104180008091A50884FF15C080912C29882379F09F
:1041900083E08093A40885E080933329109234292A
:1041A00081E090E08093292990932A29D8CF81E05B
:1041B000F0CF80912E29821790F4E0912E298091E2
:1041C000312990913229E80FF92FF11D80818093D8
:1041D000A80880912E298F5F80932E29C0CF8091CF
:1041E0002D29891760F484E090E080932929909329
:1041F0002A2980912B2981608093A708B0CF8091D4
:104200002C29882329F083E08093A40881E0C4CF7F
:1042100081E0FACF87FF40C090912D2980912F290E
:104220009817D8F48091A808E0912D2920911C2995
:1042300030911D29E20FF32FF11D808380912D29EC
:104240008F5F80932D2990912F2980912D29891797
:10425000D8F482E08093A40882CF80912C2988230F
:1042600089F087E08093A40882E08093332910923C
:10427000342981E090E08093292990932A29109293
:104280002F296DCF85E0EECF80912C29882311F066
:1042900087E0BACF85E0B8CF86E07ECF90E0FC0122
:1042A000E754F044E081EF3F39F18C549F43DC0147
:1042B0002C91822F880F880F880F8E0F8033E0F4A7
:1042C00090E0880F991FDC01AF54B64D6D937C933D
:1042D0008F5A964DDC011D921C92B0E22B9FC001BB
:1042E00011249C5F4096E80FF92FF11D8081887F93
:1042F000808380818160808308950F931F93CF9383
:10430000DF9310921D2A10921E2A48EE53E060E0BF
:1043100070E040931F2A5093202A6093212A7093C3
:10432000222A8CE590EC80931B2A90931C2A80E62D
:1043300098E08093272A9093282A88E18093292A5D
:1043400089E180932A2A80E480932B2A10922D2AD7
:1043500010922E2A10922F2A1092302A86E28093F1
:10436000312A1092322A1092332A1092B42A1092D3
:10437000B52A87E09BE21092092B10920A2B4093FA
:104380000B2B50930C2B60930D2B70930E2B26E769
:1043900030EC2093072B3093082B10929031109221
:1043A000913110929E3110929F311092A031109253
:1043B000A1311092A2311092A33122ED30EC209362
:1043C000A4313093A5318093C6319093C73126E74D
:1043D0002093C83125E42093CA314AE959E969E9B3
:1043E0007FE34093CB315093CC316093CD317093C8
:1043F000CE311092CF311092D03123E22093C931C7
:104400008093D1319093D2318BED91E30E941A04C5
:1044100010925F31109260311092713110927231AE
:10442000109283311092843170E060E082E00E944B
:10443000230761E070E082E00E94880770E060E09E
:1044400083E00E94230761E070E083E00E94880718
:1044500088E094E0809333319093343181E080930D
:10446000373188EA94E0809335319093363180E299
:104470008093383110923A3110923B3110923C3196
:1044800010923D318BE39FE10197F1F78091080491
:1044900081709091A80495FD826003E311E38093FD
:1044A00039310093DF2A1093E02A6EE37EE082E048
:1044B0000E944E21C1E0C0933E310093E12A109347
:1044C000E22A64E47EE083E00E944E2180913E3146
:1044D0008F5F80933E3110923F31109240311092A5
:1044E00041311092423184E0809343311092443143
:1044F0001092453110924631109247311092483156
:104500001092493110924A3110924B3110924C3135
:1045100010924D31C0934E31C091DA2ACC3008F060
:104520008BC081E08C0F8093DA2AC0932131D0E0D8
:1045300060910428709105288091062890910728A1
:1045400020E432E44FE050E00E943B3884E03695AE
:1045500027958A95E1F74CED55E0249FC001259FF2
:10456000900D349F900D11249C013695279536951A
:104570002795CE01880F991FC80FD91FCA54D54D52
:1045800029833A8302E61EE2C2E3DBE2CE010E9407
:10459000FF0EA2960C171D07C9F710E000E0CE0130
:1045A000800F911F0E94FF0E0E5D1F4F0E3E1105E2
:1045B000B1F7D0E0C0E0CE018E5A904D0E941A04AF
:1045C000A496C03B81E0D807B1F787E091E30E9451
:1045D0001A048DE091E30E941A0481E08093132B6A
:1045E0001092142B1092152B1092162B1092172B41
:1045F0001092182B2FEF3FEF2093192B30931A2B8B
:1046000010921B2B10921C2B10921D2B80931E2B93
:1046100010921F2B92E09093202B8093212B1092CD
:10462000222B1092232B1092242B1092252BDF91FA
:10463000CF911F910F9108958FEF80932131A2CFD9
:10464000CF93DF93CDB7DEB7C557D109CDBFDEBF5E
:1046500088ED90E084BF9093610080E094E2A4EF45
:10466000B0E08093042890930528A0930628B09387
:1046700007288091020686608093020680910006DA
:10468000816080930006809102068F7C80930206F1
:104690008091A0008F788093A000809102068061B5
:1046A000809302061092E20581E08093E40583E0A6
:1046B0008093010A8FEF90E08093260A9093270A57
:1046C00080E890E08093380A9093390A80933A0A00
:1046D00090933B0A80933C0A90933D0A8BE0809331
:1046E000000A8091E50581608093E5058091E505EC
:1046F00082608093E505E0E8FAE037E02FEF90E88C
:1047000085E031832487958780837096E03C0AE0BA
:10471000F007B9F780E094E080934B2990934C29FF
:1047200080914B2990914C292FEF30E0B9010E94E4
:1047300013386093492970934A2980914B299091AD
:104740004C29E8EEF3E0BF010E9413386093412941
:104750007093422980914B2990914C29BF010E946E
:10476000133880933F29909340292093BC0A3093BB
:10477000BD0A8091B50A81608093B50A84E0809378
:10478000B00A8091B00A81608093B00A789440E0CA
:1047900052EC61E070E08BE19AE20E94E70D82EF5B
:1047A00094E00E94361287E09BE20E94AD0D80915A
:1047B000903190919131009711F00E94693C86E010
:1047C00090E00E94CD3B28E6DC012C9327E03BE201
:1047D00011962D933C93129713961C92139720E2F7
:1047E00030E014962D933C931597809390319093DD
:1047F00091310E94400481110AC087E193E00E9438
:1048000036128DEC94E00E943612912C15C30E9452
:10481000321190E0880F892F881F990B892B09F49A
:10482000FAC08AEF92E00E9436124BE050E06EEE42
:1048300072E0CE0101960E946336CE010A960E9474
:104840003F0B082FE981E154E331D8F40E2E000C20
:10485000FF0BE35DFB4D0C947C38962441244124EE
:10486000AA24412440244124412441248A2441246F
:1048700041249D24A824A624412441244124A42485
:1048800012E0CE0105960E943F0BF82E48E050E062
:1048900065EE72E0CE0101960E946336CE0101966C
:1048A0000E943F0BE82ECE0104960E943F0BD82EAB
:1048B000CE0107960E943F0B382F19821A822AE0F8
:1048C000622F0E940738982F880F890F880F830F57
:1048D0008A838D2D0E940738982F880F890F880FA3
:1048E0008D0D8B838E2D0E940738982F880F890F8E
:1048F000880F8E0D8C83602F70E02F2D30E0E1ED5E
:10490000F7E081E0811740F59491290F311D8F5F09
:104910003196F8CF8A8111E0813609F4B2CF8B81CC
:1049200017E08E3609F0ADCF16E0ABCF8B8118E0E3
:10493000823709F0A6CF14E0A4CF8B8115E082372F
:1049400009F09FCF13E09DCF19E09BCF1AE099CFDC
:104950001BE097CF1CE095CF133028F0802F837099
:1049600011F42F5F3F4FCB0103969695879596954F
:104970008795EDE6F1E06E9FA0016F9F500D7E9F41
:10498000500D11244B5F5F4F840F951F820F931FB3
:1049900067E070E00E941338811101C087E08D83C9
:1049A0002AE08F2D622F0E940738982F880F890FD9
:1049B000880F8F0D8E83812F0E940738982F990FB3
:1049C000890F880F180F1F83802F0E940738982F98
:1049D000880F890F880F800F888721E048E050E01A
:1049E000BE016F5F7F4F80919031909191310E9415
:1049F000F0100E9432119FE09DA38F778EA321E0DB
:104A000042E050E0BE016B5D7F4F8091903190910C
:104A100091310E94F01064E170E080E090E00E942B
:104A2000480980919E3190919F31009711F00E942A
:104A3000693C86E090E00E94CD3B28E3FC012083A6
:104A400027E03BE221833283138220E230E024839B
:104A5000358380939E3190939F310E944004882338
:104A600009F4F3C08AEB898321E041E050E0BE0104
:104A70006F5F7F4F80919E3190919F310E94F01027
:104A8000982E882309F4E1C064E170E080E090E0B2
:104A90000E94480982E991E30E94260B87FF05C026
:104AA0006AE070E080E090E0F3CF81EE898388E0F7
:104AB0008A831B8221E043E050E0BE016F5F7F4F9D
:104AC00080919E3190919F310E94F01082E991E394
:104AD0000E94260B87FF07C06AE070E080E090E04C
:104AE0000E944809F3CF82E991E30E94260B83FFDD
:104AF000ACC08091A2319091A331009739F0DC01D4
:104B0000ED91FC910280F381E02D09958091A03117
:104B10009091A131009739F0DC01ED91FC91028078
:104B2000F381E02D099586E090E00E94CD3BFC01E9
:104B300085E99FEB8083918380E290E18283938378
:104B400002E911E304831583E093A231F093A331CA
:104B500086E090E00E94CD3BFC0187E89FEB8083DC
:104B6000918381E290E18283938304831583E093B0
:104B7000A031F093A13166E0E62E66E0F62E18E84B
:104B80001E196EE476E0610F21E030E0AE014F5F68
:104B90005F4F84EA91E30E94940A8981883509F085
:104BA00057C08091A6319091A731892B09F050C050
:104BB00086EB89836EE576E0610F21E030E0AE019F
:104BC0004F5F5F4F84EA91E30E94430A64E670E01E
:104BD00080E090E00E94480968EC70E080E090E09E
:104BE0000E944809612F6E0D2AE130E04CEA51E342
:104BF00084EA91E30E94940A82E796E0012F080F6D
:104C000040E16CE1802F0E94F90A40E860EE802FBD
:104C10000E94F90A83E796E0180F40E06CE1812FCB
:104C20000E94F90A40E460EE812F0E94F90A43E0F5
:104C300063E0802F0E94F90A8091A6319091A731FC
:104C4000892B69F480EA92E0DACD89EC92E0D7CD45
:104C500082E090E08093A6319093A731EDCF83E27C
:104C60008093C9318091D1319091D231DC01ED91A5
:104C7000FC910688F789E02D63E209958091D13196
:104C80009091D231DC01ED91FC910190F081E02D09
:104C900060E109958091D1319091D231DC01ED91A3
:104CA000FC91028CF38DE02D0995182F6AE070E0DD
:104CB00080E090E00E944809123009F4ABC048F44B
:104CC0001123A1F081E392E0113059F08EE891E0D8
:104CD00008C08AEC91E0133021F08EEA91E01430A4
:104CE000A9F70E94361283E892E089CD80E190E036
:104CF0008093CF319093D0310E94B6096093D33125
:104D00007093D4318093D5319093D6318091D13145
:104D10009091D231DC01ED91FC910688F789E02D6C
:104D20006091C931099562E470E08091D131909130
:104D3000D2310E943C0A8091D1319091D231DC0174
:104D4000ED91FC91028CF38DE02D0995182F809147
:104D5000D1319091D231DC01ED91FC910688F78937
:104D6000E02D6091C931099565E670E08091D131FF
:104D70009091D2310E943C0A8091D1319091D231F0
:104D8000DC01ED91FC91028CF38DE02D0995182B3F
:104D90008091D1319091D231DC01ED91FC91068866
:104DA000F789E02D6091C93109956091CF317091FB
:104DB000D0318091D1319091D2310E943C0A8091C2
:104DC000D1319091D231DC01ED91FC91028CF38DC7
:104DD000E02D0995182B6AE070E080E090E00E94D9
:104DE0004809123009F4B2C050F41123B1F081E641
:104DF00091E0113009F475CF8EEB90E072CF8AEF1D
:104E000090E0133009F46DCF8EED90E0143009F48A
:104E100068CFF2CF8CEF91E064CF85E48093CA3104
:104E20001092D7311092D8311092D9311092DA31D4
:104E30008EE592E00E9436120FE411E3F12CE12C92
:104E400027E0C22E2BE2D22E30E2A32EB12C41E27B
:104E5000742E51E8852E90E7692E6E0CF80180893A
:104E60009189009711F00E94693C86E090E00E94D1
:104E7000CD3BDC016C921196CD92DC921297139689
:104E80001C9213971496AD92BC921597F801808BE3
:104E9000918B0E9440046B968FAF6B97882309F427
:104EA00058C07DA221E041E050E0BE016B5D7F4F24
:104EB000D80150968D919C910E94F010C8010E94DB
:104EC0002A0AC8010E945A11898221E041E050E07B
:104ED000BE016F5F7F4FF801808991890E94F010B9
:104EE0006FE0C8010E94AF1168E0C8010E94AF11D5
:104EF000C8010E942A0AC8010E945A11FFEFEF1A46
:104F0000FF0A0E5E1F4F23E0E216F10409F0A3CF63
:104F10001092893110928A31109285311092863127
:104F2000109287311092883110928B3110928C310F
:104F300010928D3110928E3110928F3181E393E077
:104F40000E9436126B969FAE6B9716C08CE291E072
:104F5000C8CE84E693E00E94E606B701FF0C880BFA
:104F6000990B4AE00E94C5118DE493E00E9436122D
:104F700088EA94E00E94361262E070E0809143314A
:104F80000E945907F89410923A3110923B311092D6
:104F90003C3110923D31789410923F311092403163
:104FA00010924131109242318DE693E00E94361208
:104FB00085E08093133186E08093143187E08093FD
:104FC000153188E08093163103E111E387E1E82E83
:104FD00081E3F82E61E070E0D8018D918D010E948F
:104FE0005907F801319770E060E080810E94CF0797
:104FF000E016F10679F7809121318C3008F048C035
:1050000061E070E089E00E94590780912131282FEA
:1050100030E0A901440F551FFA01E20FF31FEA54D3
:10502000F54D9081907C996090831092223110927E
:105030002331ECE06E2F0E9407388E9FC0011124AF
:10504000B0E0A0E0BC016A0F7B1FFB01EE0FFF1F69
:10505000E60FF71FEA54F54D608166FD11C0119609
:10506000AC30B10579F784E08093A00A1092A10AD0
:1050700081E08093A50A8091A00A81608093A00AB4
:10508000240F351FF901EA54F54D80818064808337
:105090008AE590E00E94F7041092173110921831BF
:1050A0001092193110921A3110921B3110921C314A
:1050B00088EE93E0A0E0B0E080931D3190931E3124
:1050C000A0931F31B09320311092313110923231C0
:1050D0002AE530E0209324313093253121E030E07F
:1050E00020932631309327311092283110922931A4
:1050F00010922A3110922B3180932C3190932D31C4
:10510000A0932E31B0932F3111E01093303184E809
:1051100093E00E9436121092112A1092122A8EE009
:1051200090E08093132A9093142A1093152A1092DA
:10513000162A1092172A1092182A1092192A1092E1
:105140001A2A8EE993E00E9436121092502F109284
:10515000512F1092023110920331109204311092AB
:10516000053110920631E2E3FBE280E393E0DF01D8
:105170008C011D9201501040E1F7E2E6FEE28EEE56
:10518000DF011D928A95E9F7E2E5FFE280EB91E00D
:10519000DF018C011D9201501040E1F760E57FE2D4
:1051A00090E080E00E94781561E57FE281E090E088
:1051B0000E9478158091502F883110F01092502F56
:1051C0008091512F873010F01092512F88EB93E08F
:1051D0000E94361288E190E00E94CD3B28E130E049
:1051E00048E050E0009721F430E020E050E040E05B
:1051F00011E01093132B1092142B4093152B509306
:10520000162B2093172B3093182B2DE030E0209392
:10521000192B30931A2B10921B2B80931C2B9093DD
:105220001D2B10931E2B10921F2B22E02093202B5E
:105230001093212B1092222B1092232B1092242BAF
:105240001092252B24E834E02093262B3093272B33
:1052500024E02093282B0E94693C70E060E08DE000
:105260000E9459078091192B90911A2B97FD83C0AA
:1052700061E070E00E94590770E060E08091192BB6
:105280000E94CF071093142B0E948B170E947B085B
:1052900082E090E08093292B90932A2B10922B2B65
:1052A00010922C2B10922D2B10922E2B80E8809395
:1052B0002F2B1092302B1092312B80ED93E00E9417
:1052C00036126B968FAC6B97882009F4BDC183E8CA
:1052D00094E00E94361268E571EC80E00E94821131
:1052E0006DE571EC81E00E94821162E671EC82E072
:1052F0000E94821168EE73E080E090E00E9448090D
:1053000067E671EC80E00E9482116CE671EC81E04E
:105310000E94821162E771EC82E00E94821110E02B
:1053200000E03AE0E32EF12C8091152B9091162BA2
:105330000817190718F5C801B7010E941338FC01B6
:10534000EE0FFF1FE80FF91FEE5DFF4360817181D3
:1053500082810E94D904AB01BC01C8010E9468048B
:105360000E947B0864E670E080E090E00E944809BB
:105370000F5F1F4FD9CF1092142B86CF64EF71E0CF
:1053800080E090E00E9448090E948B170E947B08F1
:1053900084E094E00E94361200E012E081E00E9476
:1053A000780965E070E080E090E00E9448090150D3
:1053B0001109A1F710921731109218318DEE93E078
:1053C0000E94361283E394E00E9436128AE590E050
:1053D0000E94F7048AE590E0809324319093253170
:1053E00081E090E0809326319093273164EF71E063
:1053F00080E090E00E9448098FE194E00E9436121C
:1054000060ED77E080E090E00E9448098FE694E04C
:105410000E94361286E096E098E8981BAB969FAF04
:10542000AB9788E796E0AB969FACAB97980EAF969C
:105430009FAEAF9780907DBF90907EBFA0907FBFC2
:10544000E3968DAE9EAEAFAEE397809080BF909016
:1054500081BFA09082BFE6968DAE9EAEAFAEE697BE
:1054600085E796E0AB968FACAB97880EE0968FAE53
:10547000E0970E94B60900913B2910913C292091A8
:105480003D2930913E295B016C01A01AB10AC20A84
:10549000D30A96018501023311052105310510F467
:1054A0000C94F93560933B2970933C2980933D29F6
:1054B00090933E290E94B6096B017C0180913E3198
:1054C000823008F00AC1F89483E391E30E94F00D62
:1054D00060913A3170913B3180913C3190913D31F6
:1054E000789424E030E040E050E00E945D38209362
:1054F00041313093423180914A3190914B31A091AA
:105500004C31B0914D3197018601081B190B2A0BC4
:105510003B0BD901C801C397A105B10528F18091C2
:1055200043318B3208F4DBC080914E3181110C94F1
:105530000D3681E090E08093443190934531C092E4
:105540004631D0924731E0924831F09249316B9622
:105550008FAD6B9780934E31C0924A31D0924B31D0
:10556000E0924C31F0924D31809141319091423135
:1055700020913F31309140318C01021B130B8093FD
:105580003F31909340318091443190914531019762
:1055900079F480913A298111CCC081E080933A2935
:1055A00010923829109239298CEC95E00E9436121D
:1055B0000115110509F4EEC080913A298111CCC082
:1055C0008091362990913729101611060CF0FCC1F4
:1055D0008C010F5F1F4F0730110514F010E000E041
:1055E0008017910709F4D6C0009336291093372904
:1055F0000093893110938A3110928B310E94B60941
:1056000060938C3170938D3180938E3190938F3174
:105610008FE491E30E942A0A81E691E30E942A0A1C
:1056200083E791E30E942A0A8CE995E00E94E6064E
:10563000B801012E000C880B990B17FFCDC10E94F9
:105640000D120E942E12A6C08BE494E00E94361226
:1056500067E771EC80E00E94821167E671EC81E0FF
:105660000E9482116CE771EC82E00E94821115E0C9
:10567000E12EF12C10E000E08091152B9091162B7B
:105680000817190768F46FEF70E080E00E94D904F2
:10569000AB01BC01C8010E9468040F5F1F4FECCF33
:1056A0000E947B0864EF71E080E090E00E9448096E
:1056B0000E948B170E947B0864EF71E080E090E00D
:1056C0000E94480901E0E01AF108A1F668EE73E0D3
:1056D00080E090E00E944809F9CFF894F9CE082FB5
:1056E00010E0F801E656FF43B0802FEFB21609F440
:1056F0001BCF0E945E07F801EC54FF43E08130E2CB
:10570000E39FF0011124FC5F8085B82209F40CCFDF
:1057100080914E31811105C0109244311092453173
:1057200019CF83E090E0809344319093453180E03D
:1057300011CF8091382990913929019689309105AE
:105740002CF010923A2986EB95E030CF80933829DF
:1057500090933929012BF1F08091382990913929C2
:105760008230910509F42AC140F4009779F001973D
:1057700009F421C18CE095E00BC08330910509F458
:1057800020C10497B9F784E295E002C085E895E06E
:105790000E9436120E94B6090091D7311091D8317B
:1057A0002091D9313091DA31601B710B820B930B50
:1057B000603375478105910508F48EC01982009108
:1057C00090311091913120E041E050E0BE016F5FD7
:1057D0007F4FC8010E94F010882341F047E050E05D
:1057E000BE016F5F7F4FC8010E94940569816F778A
:1057F0007A81EB81FD818E818F779F81492F50E0E7
:1058000034E0559547953A95E1F7242F220F220F62
:10581000421B440F490F4093DB31282F30E044E016
:10582000359527954A95E1F7922F990F990F291BE6
:10583000220F280F2093DC318F2F90E054E09595B4
:1058400087955A95E1F7982F990F990F891B880F23
:105850008F0F8093DD314E2F50E0F4E05595479542
:10586000FA95E1F7842F880F880F481B440F4E0FDD
:105870004093DE31272F30E0A4E035952795AA9597
:10588000E1F7822F880F880F281B220F270F209304
:10589000DF31862F90E0B4E095958795BA95E1F7D2
:1058A000982F990F990F891B880F860F8093E031ED
:1058B000AE014F5F5F4FBE016B5D7F4F82E991E3A9
:1058C0000E94CD1781118CC08BE796E00E943612A2
:1058D00080E996E00E9436120E94B60900911931C3
:1058E00010911A3120911B3130911C316B017C01D8
:1058F000C01AD10AE20AF30A00911D3110911E313B
:1059000020911F3130912031C016D106E206F306F6
:1059100040F06093193170931A3180931B3190934A
:105920001C3180913031882311F40C94D6350E94BB
:10593000B6096B017C018091283190912931A091A9
:105940002A31B0912B31B701A601481B590B6A0BC4
:105950007B0B80912C3190912D31A0912E31B09103
:105960002F31481759076A077B0710F40C94D63576
:10597000209126313091273145E0429FC001439F5D
:10598000900D11242091243130912531820F931FE5
:105990008738910514F40C94C03587E890E0809323
:1059A0002431909325318FEF9FEF80932631909390
:1059B00027310C94C8358EE695E0EACE89E595E06E
:1059C000E7CE8EE395E0E4CE8C010150110917FF7C
:1059D00007CE06E010E004CE4AE00E94C51131CEA9
:1059E0008D899E89AF89B88D8093E1319093E231A2
:1059F000A093E331B093E43189AD9AADABADBCADCA
:105A00008093E5319093E631A093E731B093E8318C
:105A100023E030E0AE01475B5F4FAF966FADAF97CD
:105A200084EA91E30E94940A2A969FAD2A972B96C6
:105A30004FAD2B972C962FAD2C9722952F70609100
:105A4000A6317091A731672B09F077C0892F90E0BC
:105A5000B0E0A0E00CE0880F991FAA1FBB1F0A95B9
:105A6000D1F750E070E060E034E0440F551F661F4E
:105A7000771F3A95D1F7842B952BA62BB72B822B2A
:105A80004091AC315091AD3170E060E06C017D012E
:105A9000E4E0F594E794D794C794EA95D1F7C41A53
:105AA000D50AE60AF70AF3E0B595A7959795879585
:105AB000FA95D1F7440F551F661F771F4C015D0102
:105AC000841A950AA60AB70AA5019401A091AE31DD
:105AD000B091AF310E9482384B015C010BE0B5946C
